:020000040800F2
:1000000000040020B9020008BB020008BB0200087F
:10001000BB020008BB020008BB020008BB020008CC
:10002000BB020008BB020008BB0200085118000810
:10003000BB020008BB020008BB020008BB020008AC
:10004000BB020008BB020008BB020008BB0200089C
:10005000BB020008BB020008BB020008BB0200088C
:10006000BB020008BB020008BB020008BB0200087C
:10007000BB020008BB020008BB020008BB0200086C
:10008000BB020008BB020008BB020008BB0200085C
:10009000BB020008BB020008BB020008BB0200084C
:1000A000BB020008BB020008BB020008BB0200083C
:1000B00001120008BB020008BB020008BB020008D6
:1000C000BB020008BB020008BB020008BB0200081C
:1000D000BB020008BB02000801130008BB020008B5
:1000E000BB020008BB020008BB020008BB020008FC
:1000F000BB020008BB020008BB020008BB020008EC
:10010000BB020008BB020008BB020008BB020008DB
:10011000BB020008BB020008BB020008BB020008CB
:10012000BB020008BB020008BB020008BB020008BB
:10013000BB020008BB020008BB020008BB020008AB
:10014000BB020008BB020008BB020008BB0200089B
:10015000BB020008BB020008BB020008BB0200088B
:10016000BB020008BB020008BB020008BB0200087B
:10017000BB020008BB020008BB020008BB0200086B
:10018000BB020008BB020008BB020008BB0200085B
:10019000BB020008BB020008BB020008BB0200084B
:1001A000BB020008BB020008BB020008BB0200083B
:1001B000BB020008BB020008BB020008BB0200082B
:1001C000BB020008BB020008BB020008BB0200081B
:1001D000BB020008BB020008BB020008BB0200080B
:1001E00072B6274880F30888264880F30988264895
:1001F0004EF60851CEF200010860022080F3148808
:10020000BFF36F8F00F0B4FF01F09AF94FF0553053
:100210001E491B4A91423CBF41F8040BFAE71C49B6
:10022000184A91423CBF41F8040BFAE719491A4AAF
:100230001A4B9A423EBF51F8040B42F8040BF8E700
:1002400000201749174A91423CBF41F8040BFAE7D6
:1002500000F0A6FF00F094FF134C144DAC4203DAFB
:1002600054F8041B8847F9E701F002FB104C114DCC
:10027000AC4203DA54F8041B8847F9E700F088BF62
:1002800000040020000800200000000800000020FA
:10029000000400208C200008000800200008002036
:1002A0000008002018100020E0010008E00100080C
:1002B000E0010008E001000892E700F000F8FEE726
:1002C0002DE9F04FC1F80CD0C3689D46BDE8F08F12
:1002D000002383F311882846A047002001F078FA14
:1002E00001F056FA00DFFEE7830730B547D0541E11
:1002F000002A3ED0CAB2034601E0013C39D303F8DC
:10030000012B9D07F9D1032C2CD9CDB205EB052586
:100310000F2C05EB054535D9A4F1100222F00F0C86
:1003200003F1100EE6444FEA121C1A46C2E90055CA
:10033000C2E9025510327245F8D10CF1010214F0F5
:100340000C0F03EB021204F00F0C13D0ACF10403FA
:1003500023F003030433134442F8045B9342FBD1BC
:100360000CF003042CB1C9B21C4403F8011BA342D6
:10037000FBD130BD64461346002CF4D1F9E70346A7
:100380001446C0E71A46A446E0E700BF844641EAA7
:10039000000313F003036DD1403A41D351F8043BFD
:1003A00040F8043B51F8043B40F8043B51F8043B4F
:1003B00040F8043B51F8043B40F8043B51F8043B3F
:1003C00040F8043B51F8043B40F8043B51F8043B2F
:1003D00040F8043B51F8043B40F8043B51F8043B1F
:1003E00040F8043B51F8043B40F8043B51F8043B0F
:1003F00040F8043B51F8043B40F8043B51F8043BFF
:1004000040F8043B51F8043B40F8043B51F8043BEE
:1004100040F8043B51F8043B40F8043B403ABDD25D
:10042000303211D351F8043B40F8043B51F8043BFF
:1004300040F8043B51F8043B40F8043B51F8043BBE
:1004400040F8043B103AEDD20C3205D351F8043B8E
:1004500040F8043B043AF9D2043208D0D2071CBF5A
:1004600011F8013B00F8013B01D30B880380604683
:10047000704700BF082A13D38B078DD010F00303F9
:100480008AD0C3F10403D21ADB071CBF11F8013B69
:1004900000F8013B80D331F8023B20F8023B7BE7B8
:1004A000043AD9D3013A11F8013B00F8013BF9D2E3
:1004B0000B7803704B7843708B788370604670477D
:1004C0000020704700000000000000000000000055
:1004D0002DE9F04702F00305D409AE464FF0000CB9
:1004E0004FF0010803270F2614E0D0F800A003EA1C
:1004F0000A0343EA0E03BCF1070F036040D8036A06
:1005000003EA090313430362490837D04FEA8E0E0A
:100510000CF1010CCB07F7D5436808FA0CF223EA7B
:100520000203436082684FEA4C0307FA03F322EAAE
:1005300003028260D0F80C900CF0070229EA03094C
:100540009200C0F80C90022D06FA02F96FEA03033C
:1005500004FA02F26FEA0909C7D1BCF1070F15D8F6
:10056000D0F820A00AEA090949EA020202620268F8
:10057000134043EA0E0349080360C7D1BDE8F08782
:10058000436A03EA090313434362BDE7D0F824A09A
:100590000AEA090949EA02024262E8E700000000AB
:1005A000024AD36843F0C003D36070470044004060
:1005B000FEE700BF00000000000000000000000097
:1005C000202383F3118890F82030072B0DD8DFE823
:1005D00003F0270C0C2308040C08426A93680133CB
:1005E0009360D0E9003213605A6010B400224FF0DB
:1005F000FF3481680C4B446280F820201B689A68A5
:100600008A42FBD25A680021C0E90032106058606B
:1006100081F3118810BC7047436A00221A60E4E736
:10062000002383F311887047A00F00200000000012
:100630000E4A0F4B81685B6810B4546F02691B1B34
:100640005B1AD218416902614268C46841F1000135
:100650009342026888BF436001349342C0E9023488
:10066000416110BC38BF0360704700BFA00F00207D
:10067000001000E00000000000000000000000008A
:1006800030B4202383F311880E4C01F1FF3C256820
:100690004942604400EA0103A818604462680840C7
:1006A0000344934207D89D4205D82360002383F377
:1006B000118830BC70470020002383F3118830BCC0
:1006C000704700BF180F002000000000000000006D
:1006D0000C4A10B41468631EC1F1000C0B440139BC
:1006E000014401EA0C0103EA0C00536801449942F9
:1006F00004D88C4202D810BC11607047002010BC96
:10070000704700BF180F002000000000000000002C
:10071000014B5B6883607047001000E00000000040
:10072000F0B4204D55F8043FAB4235D000260DE023
:10073000D3E901124F6B91F820403A430A2C4A63E7
:1007400016D00B2C2AD01B68AB4225D0DA680243A6
:10075000DA600028ECD01A691042E9D11B68AB427C
:100760001AD0DA680243DA601A691042E0D1F5E77C
:100770004C6A2242E7D08C680B4A4E6281F82060B6
:1007800012689768A742FBD21B685468AB42C1E964
:10079000002421605160D9D1F0BC70474C6A944369
:1007A000D1D1E8E7200F0020A00F002000000000BA
:1007B0002DE9F041504D0B462E68A969D6F800C0CE
:1007C0005A1C86B056D02F46022B57F81C4F4B4A66
:1007D00003924FF0804E38BF0223BC42DEF8242043
:1007E000049174D0D5F82880A2EB08029B18A26867
:1007F00039D324689B1AA2689A4204D224689B1AAF
:10080000A2689A42FAD362680192E8460094C2F85C
:100810000080C4F804800293A268D21A4FF0FF331C
:10082000A2606B62012381F82000CCF804503046AE
:1008300086F82030C5F800C0AE61FFF741FD039B8C
:1008400063B1EA69009B424526D0019ABB4213601E
:100850005A6003D09A6802990A449A60AB69586A50
:1008600006B0BDE8F0819A42CBD908EB0302CEF87E
:100870003420C8E7012381F82000CCF8045030462A
:1008800086F82030C5F800C0AE61FFF719FDAB69EE
:10089000586A06B0BDE8F0810022BB42EB615F60A0
:1008A000039225D09A6802984FF0804102449A60E2
:1008B0004B6AA96A581A8242D0D9CB1A1344012B29
:1008C00098BF821C4FF0804311445963C6E70293DE
:1008D0001344CDE90077E846CEF834300023C5E96B
:1008E0000788AA62CEF810300223CEF80C3099E7C0
:1008F0004FF08043DA60B1E7A00F0020C105000887
:100900002DE9F04F85B0D0F81C80019316464FF0CA
:10091000200989F311888AB34646044692464FF06F
:10092000000B03928846A268D4E90470524534BF94
:10093000A56855463F1AAF424AD826D23A464146A4
:10094000FFF724FDEA1B08EB0701E0680292FFF7BE
:100950001DFD029AE1681144A2686161521BA26008
:100960000EB12046B0478BF31188AAEB050AA844C4
:1009700089F31188BAF1000FD5D1039E30460023C8
:1009800083F3118805B0BDE8F08F41462A46FFF792
:10099000FDFCE168A2686161521BA260002DDFD1FD
:1009A000019B63B10E4B60689A690199C2E90040EE
:1009B000026062600420FFF7FBFE0028B3D0039EB4
:1009C0000023A6EB0A0083F3118805B0BDE8F08F81
:1009D00041462A46FFF7DAFC61692944DAE700BF9D
:1009E000A00F002000000000000000000000000038
:1009F0004FF0FF333030FFF783BF00BF000000002F
:100A00003030FFF77DBF00BF000000000000000095
:100A100070B52023044683F3118883688BB90D4693
:100A200029B3164EB36962682946C3E9004204201F
:100A300013606360FFF7BCFE00281ADBA368002B7D
:100A4000F0D0A368A169013BA36023694A1C9A42C4
:100A500028BFE368A2610D7828BFA361E3690BB1E9
:100A600020469847002383F31188284670BD4FF035
:100A7000FF30002383F3118870BD00BFA00F00205A
:100A80004FF0FF310C30FFF7C3BF00BF0000000084
:100A90000C30FFF7BDBF00BF0000000000000000E9
:100AA0002DE9F04F85B0D0F81C80019316464FF029
:100AB000200989F31188002A31D04646044692461F
:100AC0004FF0000B03928846A268A169276952453E
:100AD00034BFA56855467F1AAF424AD826D23A4657
:100AE0004046FFF753FCEA1BE168029208EB07005F
:100AF000FFF74CFC029AE1681144A268A161521B05
:100B0000A2600EB12046B0478BF31188AAEB050A0C
:100B1000A84489F31188BAF1000FD5D1039E30465D
:100B2000002383F3118805B0BDE8F08F2A464046C4
:100B3000FFF72CFCE168A268A161521BA260002DA6
:100B4000DFD1019B63B10E4B60689A690199C2E9DC
:100B50000040026062600420FFF72AFE0028B3D044
:100B6000039E0023A6EB0A0083F3118805B0BDE8BD
:100B7000F08F2A464046FFF709FCA1692944DAE7CD
:100B8000A00F002000000000000000000000000096
:100B90004FF0FF330C30FFF783BF00BF00000000B1
:100BA0000C30FFF77DBF00BF000000000000000018
:100BB000F8B504460F46202383F3118883688BB968
:100BC000154622B3154E6068B3692946C3E9004053
:100BD000036004206360FFF7EBFD002819DBA368C6
:100BE000002BF0D06269A368511C013B6161A360D6
:100BF0001770D4E904329A4224BFE3686361E36961
:100C00000BB120469847002080F31188F8BD4FF0C3
:100C1000FF30002383F31188F8BD00BFA00F002030
:100C20004FF0FF323030FFF7C3BF00BF00000000BD
:100C30003030FFF7BDBF00BF000000000000000023
:100C4000017861B138B5064D04464FF0FF322846B1
:100C5000FFF7AEFF14F8011F0029F6D138BD704729
:100C6000500F002000000000000000000000000005
:100C70002E4A2F4992692F4D4FF0804380B54FF493
:100C800080562D4F5B6A91610024B0464FF4005CA2
:100C90004FF480404FF40041621EA5F81A80A5F879
:100CA0001AC068836983032A3BD8DFE802F0302C3E
:100CB00028024FF400504FF480414FF400422E833D
:100CC000288329832A830134E4B2A7FB042101F09D
:100CD000FC0202EB9102A41A2020E4B203F6B83918
:100CE00080F311884FF0804140F6B732496ACB1A41
:100CF000934210D9002383F311884B46C6E74FF483
:100D000000422A83DFE74FF480422A83DBE74FF477
:100D100000522A83D7E7A9EB01010820FFF748FD1D
:100D2000E8E7044A4FF480511183CCE7A00F00207C
:100D3000A01D0008000C0240CDCCCCCC000000006F
:100D400080B5314B314A9B69314C324E4FF0804176
:100D500084B04D6A9A610027DFF8BC8043214FF0D0
:100D6000FF322046FFF724FF18F8011F0029F6D1B3
:100D70008DF80F1077BB30218DF80E100DF10E0895
:100D80004FF0FF322046FFF713FF18F8011F00292C
:100D9000F6D1DFF888800D214FF0FF322046FFF7B3
:100DA00007FF18F8011F0029F6D105F5EA4808F1F8
:100DB0003008202383F311884FF0804247F22F53ED
:100DC000516A4D1B9D4218D9002383F311880137C6
:100DD0004546C1E73A460DF10F08A6FB0213DB08B2
:100DE00003EB8301A2EB410110463031C9B209285F
:100DF00008F8011D1A46F0D8C2E7A8EB0101082047
:100E0000FFF7D6FCE0E700BFA00F0020BC1D0008E4
:100E1000500F0020CDCCCCCCAC1D0008B81D000874
:100E2000144A916930B48C6885680023A5424362F6
:100E300012D981F8203013461B689D68AC42FBD361
:100E40005C68C1E9003421600124596080F82040C9
:100E500030BC9061FFF734BA80F8203013461B682D
:100E60009A689542FBD95A6830BCC0E900321060DC
:100E700058607047A00F0020000000000000000034
:100E8000034670B5202080F3118803F5AE74C3F8D3
:100E90008C410024C3E95724144AC3F88811012562
:100EA00083F8A2515569C3F8BC1103F5C0704FF027
:100EB000020C0F490F4EC3F89811C3E96425C3E92A
:100EC0006D44C3F89C3103F5D671C3F87C61A3F877
:100ED000A0C12861506103F5D472C3E96B11C3F856
:100EE000A821FFF79DFF84F3118870BDA00F00209B
:100EF000C41D0008D102000800000000000000002E
:100F00002DE98848864B874A9B69874D874C884FD7
:100F1000884EDFF82482DFF824929A614FF0000AAD
:100F200087484FF0FF31FFF773FDC3B20D2B11D08F
:100F30000A2B83484FF0FF310CD0BAF17F0F5ED1FE
:100F4000FFF766FDC3B20D2B07D00A2B7C484FF08C
:100F5000FF31F2D1BAF1000F46DD002305F80A3067
:100F6000DFF8E0A152214FF0FF322046FFF720FECC
:100F70001AF8011F0029F6D1297851B1DFF8A8A18C
:100F80004FF0FF322046FFF713FE1AF8011F002929
:100F9000F6D1DFF8B4A10D214FF0FF322046FFF764
:100FA00007FE1AF8011F0029F6D12B68BB4231D089
:100FB000B34241D02B68B34253D02B68B34265D0C3
:100FC0002B68B34277D02B68434500F08B804B45AC
:100FD00000F09D805A484FF0FF31FFF719FDC3B272
:100FE0000D2B4FF0000AA3D1554A10464FF0FF31A8
:100FF000FFF70EFDC3B20D2B514A99D1F5E74FF023
:10100000FF321946204605F80A300AF1010AFFF7B7
:10101000CFFD85E74D4ADFF838A1536983F480534B
:101020004C2153614FF0FF322046FFF7C1FD1AF803
:10103000011F0029F6D1CDE7AB88322BBAD1434A44
:10104000DFF810A1536983F48053502153614FF0AE
:10105000FF322046FFF7ACFD1AF8011F0029F6D138
:10106000B8E7AB88332BA8D1384ADFF8ECA0536936
:1010700083F40053536150214FF0FF322046FFF7B5
:1010800097FD1AF8011F0029F6D1A3E7AB88342B8E
:1010900096D12E4ADFF8C4A0536983F4804353618C
:1010A00050214FF0FF322046FFF782FD1AF8011F52
:1010B0000029F6D18EE7AB88352B84D1234ADFF89F
:1010C000A0B05369DFF864A083F40043536150215A
:1010D0004FF0FF325046FFF76BFD1BF8011F002950
:1010E000F6D177E7194B1F485A6982F480525A614A
:1010F0005A6982F400525A615A6982F480425A61F4
:101100005A6982F400425A61FFF79AFD62E72B792F
:10111000002B7FF45FAF1448FFF792FD5AE700BF42
:10112000A00F0020281E0008980E0020500F00205D
:101130006C6564006C656431616C6C0068656C7032
:101140002C0F0020CC1D0008B81D0008000C024028
:10115000D81D0008E81D0008F81D0008081E00083A
:10116000181E0008581E0008741E00080000000029
:10117000704700BF000000000000000000000000F9
:10118000704700BF000000000000000000000000E9
:10119000FEE700BF000000000000000000000000AB
:1011A00070B5134D05F1800455E90301884255F8E7
:1011B000102C0DD2043A034652F8046F43F8046B26
:1011C0008B42F9D34B1E1B1A23F00303043318443C
:1011D00055F8042C824207D9013A121A22F0030270
:1011E00004320021FFF780F81035A542DCD170BD34
:1011F00014200008000000000000000000000000B3
:101200002DE9F0474FF080473B699B070BD4202323
:1012100083F31188364B5B6813F4006350D183F37A
:101220001188BDE8F08700243C61202383F31188F6
:10123000DFF8C080786AD8F81C30D8F82820996880
:10124000A0EB0209894508F11C0A28BF264624D3D1
:10125000202501E0D8F8282018680A445045C8F82D
:101260002820A9EB0109DA68C0F804A0C8F81C001E
:10127000DC6008BFFC6086F311881869904785F32D
:101280001188D8F81C3099688945E3D2786AD8F873
:101290002820A0EB02098945DAD253450CD0996881
:1012A000C8F82800091A0A444FF08041022A2CBFCE
:1012B000801802309A604863002383F31188A6E700
:1012C000EFF309834FF0807243F8042CA3F120025E
:1012D00082F30988074A1168926989689268914285
:1012E0008CBF054A054A43F8082CBDE8F08700BFCB
:1012F00000ED00E0A00F0020E1020008E402000879
:101300002DE9F84F854CD4F87490D9F80C80D9F8B1
:101310000030D8059DB200F19280202383F311881C
:1013200015F02F0F58D07E4E00270BE0A906D9F8F4
:1013300004B094F878A01FD4D9F8003013F02F0F20
:101340009DB249D02907F1D045F30000C5F3C00391
:1013500000F0200040EAC310AA0748BF40F0400058
:101360006B0748BF40F48070FFF7DAF9A906D9F897
:1013700004B094F878A0DFD56369002B45D0D4E998
:1013800008239A4248D06369511C01330AEA0B0AC8
:101390002162636182F800A0D4E90732E1689A42D1
:1013A00024BFA3692362B142C6D00B688868E3609A
:1013B0005E605C4B4F6281F820701B689A688242C5
:1013C000FBD25A68C1E9003211605960D9F8003087
:1013D00013F02F0F9DB2B5D1002383F3118818F0BD
:1013E000800F01D02A0650D418F0400F01D06B06B0
:1013F0001AD4202383F311884B4B5B6813F40063EA
:101400002CD183F31188BDE8F88F0420FFF788F909
:10141000D4E908239A42B6D16369002BB3D04FF4C4
:101420008060FFF77DF987E7202383F31188D4E9F3
:1014300011239A4257D0002383F31188D9E7202340
:1014400083F311884FF40070FFF76AF96FF480732B
:10145000C9F80030002383F311885EE7EFF30983B6
:101460004FF0807243F8042CA3F1200282F3098824
:101470002C4A116892698968926891428CBF2B4A04
:101480002B4A43F8082CBDE8F88F202383F31188FA
:10149000D4E911239A4233D0A26B0132A2635A1CC1
:1014A000A2641E78236C9A4201D3E36BA364216B80
:1014B000204B994211D00A682263536000234B628B
:1014C00081F820308868174B1B689A688242FBD2EB
:1014D0005A680B604A6011605960C9F804600023C3
:1014E00083F3118880E7A36B002BA4D01020FFF7B3
:1014F00017F94FF6BF7308EA0303C9F80C309AE7EF
:10150000A26B002AC8D00820FFF70AF94FF67F73B4
:1015100008EA0303C9F80C30E1E700BF200F002000
:101520002C0F0020A00F002000ED00E0E1020008D9
:10153000E4020008500F002000000000000000003E
:10154000764B196941F01F012DE9F04F19611969B6
:10155000DFF8CC81DFF8CC91734E744D744CDFF81A
:10156000D4A121F01F0119611969196B41F01F0104
:101570001963196D41F01F01196500224FF0FF3703
:101580004FF6FF7C6C49186DC8F80420C8F8087045
:10159000C8F80C10C8F814C0C8F82090DFF89C9167
:1015A000C8F8249009F12A5909F5B019C8F8009033
:1015B00008F1A95808F5FA1808F255584FF0806B51
:1015C00072604FF4A86EB760C6F80C80C6F814C0FD
:1015D000C6F820B0DFF868B1C6F824E0DFF86491FF
:1015E000C6F800B0584E6A60AF60C5F80C90C5F8F8
:1015F00014C02E62554E6E62554E2E60554D62607F
:10160000A760E56040F6FF75656153485349544D46
:101610002262DFF8508162622560534C426087602D
:10162000C460C0F814C002624262C0F800E04A60C0
:101630004FF080508F60C1F80C80C1F814C00A626E
:101640004A620A604FF400421864CAF800201A681F
:1016500042F001021A601A689407FCD599682F4A73
:1016600021F003019960936813F00C03FBD110681B
:101670002A4900F0F90010609360136843F4803346
:1016800013600B689803FCD54B6F244A43F00103A9
:101690004B67536F9907FCD5344B5360136825494A
:1016A00043F0807313604B685A04FCD51B4A1368DF
:1016B0009B01FCD52E4B2F4890600321C2F88C1063
:1016C0001A682D4B9A421ED02C4B40F202721A60BF
:1016D0002A4A136803F00F03022BFAD10F4A9368CA
:1016E00043F002039360936803F00C03082BFAD1D4
:1016F000536C43F480435364536E43F48043536606
:10170000536EBDE8F08F1E4A1E4B12689A42DBD121
:101710001A4B4FF481721A60DAE700BF00380240BA
:10172000000002400000565500040240000802403C
:10173000000C0240007000405450014000AA0A0012
:101740008020280015555505005000600006060051
:10175000818020025551550000100240001C0240BB
:1017600000010055505555554555555508544107EC
:10177000002004E00010883811640020003C024082
:1017800000ED00E041C20F41000000000000000039
:101790000E4A10689169036810B401245A6080F8F9
:1017A0002040002481F8204013608C6890619A6882
:1017B000A24203D91B689A68A242FBD85A6810BC9F
:1017C000C1E9003211605960FEF77ABDA00F002018
:1017D00030B5202383F311881A4DA9698C6A4862B9
:1017E00001F1280C644513D04FF0000E2268154B10
:1017F000A0688A6284F820E01B689A688242FBD263
:101800005A68C4E9003214605C608C6A6445EDD1AA
:1018100091F822303BB991F821309B0703D1D1E9EF
:10182000043213615A6128680F2381F8203003685D
:101830002B6001225D6080F82020A861BDE8304067
:10184000FEF73EBDA00F00200000000000000000D9
:10185000EFF30983203383F30988002383F311888E
:10186000704700BF00000000000000000000000002
:10187000C44BC5481A6962F01F022DE980481A61FD
:101880001A6902F01F021A614FF0FF341A695A698F
:101890005C6100215A6959615A691A6A62F0805282
:1018A0001A621A6A02F080521A621A6A5A6A5C62F2
:1018B0005A6A59625A6A1A6C42F080521A641A6E55
:1018C00042F080521A661A6E026842F48072026018
:1018D0001A6F02F44072B2F5007F87B003D04FF464
:1018E00080321A671967A849A84E4A68A84DA94FBF
:1018F000DFF89092DFF8A0E222F400724A606023E1
:101900004FF4807280214FF0400A4FF4007486F843
:1019100006332846C6F880A1C6F800A086F807332B
:10192000C6F88011316086F80833C6F8802132602D
:1019300086F80933C6F8804134604FF4806486F835
:101940000A33C6F8804134604FF4000486F8173338
:10195000C6F88041346086F82833C6F88421726066
:1019600040F8047B05F1540200274FF0010805F10F
:1019700064034FF0100BC5E90822AA6105F10C02BF
:10198000C5E90322686085F808806F61EB61C5F8DE
:1019900038B0C5E91133EB63D9F840302D6543EA1F
:1019A0000803C5E90A75C9F84030D9F860307B4AA8
:1019B0007B4C43EA0803C9F86030D9F8603093687B
:1019C000646043EA08039360C5F84CE0DFF8D4E1B3
:1019D000C5F874E04FF0804305F1300005F1740E56
:1019E000C5E90C00C5F840E04FF0805C4FF0FF32D5
:1019F00042F2CF0E04F11C00C3F828E0DA629F61C6
:101A00005F63DF605F60C3F81480C3F8008086F80E
:101A10001C130023C6F880C1C6F800C02460A7606C
:101A2000C4E907006262684600920022CDE90423FF
:101A3000A762676701970397FEF76AFEFEF7F8FD56
:101A400059485A4ADFF868E1476100F10C03C0E9E0
:101A50000333029B6367574B1362936302EB0B03E1
:101A6000136102F12403536202F12803936202F12D
:101A70003C03D36302EB0A03136402F1440353648F
:101A80004D4BCEF800304D4BCEF804304C4B03603C
:101A9000C0E9017780211420DFF828C1A163C4E9DF
:101AA0001A7190610421484B97601C205761D762DE
:101AB000D16151631063C2E90022676684F85280E5
:101AC000A364A4F85080DCF80C20E7644FF6FF0311
:101AD0001A403E4B1343C4E91044CCF80C30DCF8F8
:101AE000FC303B4A43F08073CCF8FC3004F1300307
:101AF000C4E90433A361136843EA0803136004F1E3
:101B00005C038CF81FB0C4E917334FF0200B04F1CD
:101B10005803A3658CF822B087F3118862B68BF363
:101B200011882C4BDFF8B0C0C3F86CC0DFF8ACC034
:101B3000C3F88CC0DFF8A8C06269C3F8A8C003F17D
:101B40006C0C03F19000C3F89CC04FF0020CC3F87A
:101B5000A420C3E93177C3F8AC301F67C3F898807D
:101B6000C3F8CC8083F8B280C3F8A040A3F8B0C01B
:101B7000106103F1BC02C3E92F2203F1B8026061D6
:101B800030E000BF003802400070004000E100E09B
:101B9000200F0020C41F0008A1050008002004E059
:101BA000A00F002000440040D8080020F4080020C6
:101BB000180F0020D1060008181000200000012096
:101BC0008106000800ED00E0EC1F00080003FA05A4
:101BD000001000E000080020B1050008D102000854
:101BE000AC1E0008C3F8B820FFF71AF987F3118874
:101BF0005848042140F28232FEF76AFC40F28232F9
:101C00000821FEF765FC8BF311882B7A434514D12C
:101C1000D9F8403043F40033C9F84030D9F8603087
:101C200043F40033C9F86030C023D9F8602086F847
:101C30002633C6F884A1C6F804A06B6F464A9342C7
:101C400000F08480454940F2D9228B4218BF4FF4FE
:101C5000B6729A604021012642F22C1200271961C7
:101C60005E61DA601F601A685B68FF22022385F8F4
:101C700078202B7287F31188394C324620464FF476
:101C80008051FEF725FC32464FF40051FEF720FC50
:101C900032464FF48041FEF71BFC32464FF40041C0
:101CA000FEF716FC32464FF48051FEF711FC4FF45C
:101CB00080514FF4005361834FF4804263834FF4AB
:101CC000004362832025638385F311884FF47A7182
:101CD0000820FEF76DFD87F311882248FEF7B0FF5C
:101CE0002148FEF7ADFF2148FEF7AAFF2048FEF786
:101CF000A7FF2048FEF7A4FF1F48FEF7A1FF1F48DB
:101D0000FEF79EFF1E48FEF79BFF1E48FEF798FF5A
:101D10001D4A1E488221FFF7B3F81D4A1D48802145
:101D2000FFF7AEF81C4A1D488121FFF7A9F8636947
:101D300083F40053636185F3118844F62061082021
:101D4000FEF736FD002383F31188F0E740F2D92235
:101D50007FE700BF00000240001001400014014076
:101D6000000C0240B41E0008E81E0008F41E000823
:101D7000141F0008301F00084C1F0008681F0008CF
:101D8000841F0008A41F0008010F0008D00C0020C9
:101D9000410D0008080B0020710C000840090020CC
:101DA0006C65645F626C696E6B657200436F756E23
:101DB0007465723A200000000D0A000075617274AB
:101DC0005F7478006E6F6E616D65000052656365CB
:101DD000697665643A2000004C45443420746F678E
:101DE000676C65640D0A00005044313220746F67DF
:101DF000676C65640D0A00005044313320746F67CE
:101E0000676C65640D0A00005044313420746F67BC
:101E1000676C65640D0A00005044313520746F67AB
:101E2000676C65640D0A0000756172745F727800FA
:101E30006C6564006C656431320000006C6564316F
:101E4000330000006C656431340000006C6564315F
:101E500035000000616C6C00416C6C204C45447393
:101E600020746F67676C65640D0A000068656C70AC
:101E700000000000436F6D6D616E64733A206C6505
:101E8000642C206C656431322C206C656431332CF9
:101E9000206C656431342C206C656431352C2061F4
:101EA0006C6C2C2068656C700D0A000069646C65B0
:101EB000000000000D0A2A2A2A2043686962694F3F
:101EC000532055415254204578616D706C652077E0
:101ED000697468204D756C7469706C65204C45445C
:101EE00073202A2A2A0D0A00436F6D6D616E647398
:101EF0003A0D0A002020276C6564272020202D2021
:101F0000546F67676C6520626F617264204C454452
:101F10000D0A00002020276C6564313227202D2017
:101F2000546F67676C6520504431320D0A00000021
:101F30002020276C6564313327202D20546F67677C
:101F40006C6520504431330D0A0000002020276CBE
:101F50006564313427202D20546F67676C652050ED
:101F60004431340D0A0000002020276C65643135AF
:101F700027202D20546F67676C6520504431350D44
:101F80000A000000202027616C6C272020202D20D3
:101F9000546F67676C6520616C6C204C4544730D11
:101FA0000A00000020202768656C702720202D2063
:101FB00053686F7720746869732068656C700D0AC8
:101FC0000000000000000000F1090008910B00086B
:101FD000210C0008810A0008310C0008910A000851
:101FE000010A0008A10B0008C10400086D61696EB8
:101FF00000160430040444080C1014181C2021227C
:10200000000000008C20000818100020181000208C
:10201000181000208C2000080000000000000000C4
:10202000000000008C2000080000000000000000FC
:10203000000000008C2000080000000000000000EC
:10204000000000008C2000080000000000000000DC
:10205000000000008C2000080000000000000000CC
:10206000000000008C2000080000000000000000BC
:10207000000000008C2000080000000000000000AC
:04208000000000005C
:0820840008E3FF7F01000000EA
:04000005080002B934
:00000001FF
