:020000040800F2
:1000000000040020B9020008BB020008BB0200087F
:10001000BB020008BB020008BB020008BB020008CC
:10002000BB020008BB020008BB02000871600008A8
:10003000BB020008BB020008BB020008BB020008AC
:10004000BB020008BB020008BB020008BB0200089C
:10005000BB020008BB020008BB020008BB0200088C
:10006000BB020008BB020008BB020008BB0200087C
:10007000BB020008BB020008BB020008BB0200086C
:10008000BB020008BB020008BB020008BB0200085C
:10009000BB020008BB020008BB020008BB0200084C
:1000A000BB020008BB020008BB020008BB0200083C
:1000B000C1220008BB020008BB020008BB02000806
:1000C000BB020008BB020008BB020008BB0200081C
:1000D000BB020008BB020008C1230008BB020008E5
:1000E000BB020008BB020008BB020008BB020008FC
:1000F000BB020008BB020008BB020008BB020008EC
:10010000BB020008BB020008BB020008BB020008DB
:10011000BB020008BB020008BB020008BB020008CB
:10012000BB020008BB020008BB020008BB020008BB
:10013000BB020008BB020008BB020008BB020008AB
:10014000BB020008BB020008BB020008BB0200089B
:10015000BB020008BB020008BB020008BB0200088B
:10016000BB020008BB020008BB020008BB0200087B
:10017000BB020008BB020008BB020008BB0200086B
:10018000BB020008BB020008BB020008BB0200085B
:10019000BB020008BB020008BB020008BB0200084B
:1001A000BB020008BB020008BB020008BB0200083B
:1001B000BB020008BB020008BB020008BB0200082B
:1001C000BB020008BB020008BB020008BB0200081B
:1001D000BB020008BB020008BB020008BB0200080B
:1001E00072B6274880F30888264880F30988264895
:1001F0004EF60851CEF200010860022080F3148808
:10020000BFF36F8F02F014F802F00AFA4FF0553086
:100210001E491B4A91423CBF41F8040BFAE71C49B6
:10022000184A91423CBF41F8040BFAE719491A4AAF
:100230001A4B9A423EBF51F8040B42F8040BF8E700
:1002400000201749174A91423CBF41F8040BFAE7D6
:1002500002F006F801F0F4FF134C144DAC4203DA3F
:1002600054F8041B8847F9E70AF0AAFC104C114D1A
:10027000AC4203DA54F8041B8847F9E701F0E8BF01
:1002800000040020000800200000000800000020FA
:1002900000040020CCD3000800080020E008002063
:1002A000E008002058140020E0010008E0010008E8
:1002B000E0010008E001000892E700F000F8FEE726
:1002C0002DE9F04FC1F80CD0C3689D46BDE8F08F12
:1002D000002383F311882846A047002004F050FF34
:1002E00003F036FE00DFFEE740EA01039B0710B58E
:1002F00001D1032A17D8844601F1FF3E07E01EF81A
:10030000011F03F8011B541E29B19C462246634677
:10031000002AF4D110BD9444002CFBD003F8011B3B
:100320006345FBD110BD8E468446DEF80040A4F143
:10033000013323EA040313F0803F71460EF1040EEB
:10034000DAD1043A032A4CF8044BEED87146D3E7CD
:10035000830730B547D0541E002A3ED0CAB20346A8
:1003600001E0013C39D303F8012B9D07F9D1032C9F
:100370002CD9CDB205EB05250F2C05EB054535D95C
:10038000A4F1100222F00F0C03F1100EE6444FEA24
:10039000121C1A46C2E90055C2E9025510327245D4
:1003A000F8D10CF1010214F00C0F03EB021204F06F
:1003B0000F0C13D0ACF1040323F0030304331344F4
:1003C00042F8045B9342FBD10CF003042CB1C9B298
:1003D0001C4403F8011BA342FBD130BD6446134605
:1003E000002CF4D1F9E703461446C0E71A46A446A8
:1003F000E0E700BF00000000000000000000000077
:1004000002780B78012A28BF9A4240F0D8806DE923
:10041000044540EA0104CDE902676FF0000C4FEAA1
:1004200044721AB380EA010414F0070F6BD100F094
:10043000070420F0070004F0030521F007014FEA4C
:10044000C505F0E8042314F0040FF1E804670CFA82
:1004500005F462EA040266EA04060BD063EA0403C8
:10046000624667EA0407664604E000BFF0E804233A
:10047000F1E8046782FA4CF582EA0604A4FA8CF4E7
:100480006CBB83FA4CF583EA0705A5FA8CF595B9A0
:1004900050E9022351E9026782FA4CF582EA060428
:1004A000A4FA8CF483FA4CF583EA0705A5FA8CF5D7
:1004B0002543DBD09CB92DBAB5FA85F424F00704A6
:1004C00027FA04F1DDE9026723FA04F303F0FF00E1
:1004D00001F0FF01FDE80445A0EB0100704724BADC
:1004E000B4FA84F424F0070426FA04F1DDE9026783
:1004F00022FA04F202F0FF0001F0FF01FDE80445DA
:10050000A0EB0100704714F0030F3CD110F003047E
:1005100028D150F8082B51F8083B82FA4CF582EAB2
:100520000305A5FA8CF55DB950F8042C51F8043C8C
:1005300082FA4CF582EA0305A5FA8CF5002DE8D085
:100540002DBAB5FA85F424F0070423FA04F122FA4F
:1005500004F202F0FF0001F0FF01FDE80445A0EB0A
:10056000010070474FEAC40420F0030050F8082B44
:1005700021F0030151F8083B0CFA04F462EA04028A
:1005800063EA0403C9E710F003041DD0A1EB0401E2
:1005900020F00300E40750F8042B06D012D28B7829
:1005A0005FFAA2F4E41A06D12BB1CB785FFAB2F469
:1005B000E41A00D133B920465DF8104B7047A2EB26
:1005C0000300704701F1040150F8042BCC0721F01F
:1005D000030151F8043B48D824D222F07F4482FA28
:1005E0004CF594EA1325A5FA8CF50AD165B951F8B2
:1005F000043B84EA0204B4EB036F0ED150F8042BE1
:10060000EBE74FEA132355E035F07F454DD10878ED
:10061000FDE80445C0F1000070474FEA126203F0A4
:10062000FF0347E002EA1C4482FA4CF594EA1345C2
:10063000A5FA8CF50AD165B951F8043B84EA0204A5
:10064000B4EB034F0CD150F8042BEBE74FEA134304
:1006500030E015EA1C4528D10B884FEA124229E008
:100660004FEA124203EA1C4324E002F0FF0482FA3C
:100670004CF594EA1365A5FA8CF50AD165B951F8E1
:10068000043B84EA0204B4EB032F09D150F8042B95
:10069000EBE74FEA13630DE015F0FF0F05D10B6890
:1006A0004FEA122223F07F4304E04FF00000FDE800
:1006B0000445704712BA1BBA82FA4CF482EA03046A
:1006C000A4FA8CF5B5FA85F402FA04F203FA04F3FD
:1006D0004FEA1260FDE80445A0EB1360704700BFCD
:1006E000002A3ED030B584460446084380070B46B6
:1006F0002ED1032A07D82BE0043A25D01EF0803FE4
:1007000022D1032A22D92068194653F8045BA0F1AC
:10071000013EA842A4462EEA000E04F10404EBD0E8
:100720009CF800000C7884421DD1E64668B11EF8A2
:10073000010F11F8014FA2EB0E03A04203F1FF33AA
:1007400011D11CEB0303F1D1002030BDA4461946A2
:100750009CF800000C78A04205D1012AF4D0E646AE
:10076000E4E710467047001B30BD00BF032A30B4D9
:1007700015D941EA0004A40784460B4604D0541E50
:100780000FE0043A032A08D91946604653F8044B8F
:100790005CF8045BA542F4D0F1E760461946541EAC
:1007A0007AB1431E0139021901E09A4209D013F8C7
:1007B000010F11F801CF6045F7D0A0EB0C0030BC61
:1007C0007047002030BC7047844641EA000313F0B4
:1007D00003036DD1403A41D351F8043B40F8043B48
:1007E00051F8043B40F8043B51F8043B40F8043B0B
:1007F00051F8043B40F8043B51F8043B40F8043BFB
:1008000051F8043B40F8043B51F8043B40F8043BEA
:1008100051F8043B40F8043B51F8043B40F8043BDA
:1008200051F8043B40F8043B51F8043B40F8043BCA
:1008300051F8043B40F8043B51F8043B40F8043BBA
:1008400051F8043B40F8043B51F8043B40F8043BAA
:1008500051F8043B40F8043B403ABDD2303211D34A
:1008600051F8043B40F8043B51F8043B40F8043B8A
:1008700051F8043B40F8043B51F8043B40F8043B7A
:10088000103AEDD20C3205D351F8043B40F8043B4A
:10089000043AF9D2043208D0D2071CBF11F8013B48
:1008A00000F8013B01D30B8803806046704700BF0E
:1008B000082A13D38B078DD010F003038AD0C3F11D
:1008C0000403D21ADB071CBF11F8013B00F8013BFF
:1008D00080D331F8023B20F8023B7BE7043AD9D3BE
:1008E000013A11F8013B00F8013BF9D20B78037093
:1008F0004B7843708B78837060467047000000002F
:100900000020704700000000000000000000000010
:10091000024AD36843F0C003D360704700440040EC
:10092000FEE700BF00000000000000000000000023
:10093000202383F3118890F82030072B0DD8DFE8AF
:1009400003F0270C0C2308040C08426A9368013357
:100950009360D0E9003213605A6010B400224FF067
:10096000FF3481680C4B446280F820201B689A6831
:100970008A42FBD25A680021C0E9003210605860F8
:1009800081F3118810BC7047436A00221A60E4E7C3
:10099000002383F311887047C0110020000000007D
:1009A000174B30B404689D69C368AB63844223D09D
:1009B000E96B4BB11A68934203D09268914238BFF9
:1009C0001146DB68002BF5D1A9602368A16B036099
:1009D00000225860C0E90241094BA168A06384F875
:1009E00020201B689A688A42FBD25A68C4E9003208
:1009F00014605C6030BC70470023A36030BC70475B
:100A0000C0110020000000000000000000000000F5
:100A1000036898423CD0F0B400260DE0D3E90142CF
:100A2000676B94F820503A430A2D626316D00B2D61
:100A30002AD01B68984225D0DA680A43DA60002978
:100A4000ECD01A691142E9D11B6898421AD0DA68D1
:100A50000A43DA601A691142E0D1F5E7656A2A4271
:100A6000E7D0A5680B4A666284F820601268976830
:100A7000AF42FBD21B6855689842C4E900252C6040
:100A80005460D9D1F0BC7047656A9543D1D1E8E78D
:100A9000704700BFC01100200000000000000000EF
:100AA00030B4202383F311880E4C01F1FF3C2568FC
:100AB0004942604400EA0103A818604462680840A3
:100AC0000344934207D89D4205D82360002383F353
:100AD000118830BC70470020002383F3118830BC9C
:100AE000704700BF3C110020000000000000000023
:100AF0000C4A10B41468631EC1F1000C0B44013998
:100B0000014401EA0C0103EA0C00536801449942D4
:100B100004D88C4202D810BC11607047002010BC71
:100B2000704700BF3C1100200000000000000000E2
:100B300070B40D4D0D4E2C68421E334603E013F881
:100B400001CB844507D19C4212F8010FF7D810B9A8
:100B50002E6070BC7047064C064A074B012020707F
:100B6000107070BC19607047C8100020B8100020C9
:100B7000D1100020D0100020CC1000200000000078
:100B800010B4474C01232360202383F31188454A86
:100B9000116891426AD000230968914203F1010370
:100BA000FAD15168914247D04968914203F1FF332D
:100BB000FAD1002B40D1002383F311880221216058
:100BC000202181F311883848D169814254D00968C5
:100BD000814203F10103FAD1116A814239D0496897
:100BE000814203F1FF33FAD1002B32D1002383F38A
:100BF000118803212160202181F31188116991421C
:100C00004AD00969914203F10103FAD15169914235
:100C100036D04969914203F1FF33FAD1002B2FD12D
:100C2000002383F3118804222260202282F311889A
:100C300083F3118810BC7047002383F311881B4C89
:100C40001B481C4A1C49116001232370037010BC0F
:100C50007047002383F31188144C1548154A17492F
:100C6000116001232370037010BC704751689142DA
:100C700018BF002398D19EE7116A8142AFD1B5E732
:100C8000002383F31188094C09480A4A0C49116072
:100C9000012323700370DAE751699142B9D1BFE7AC
:100CA000B4100020C0110020DC110020D110002061
:100CB000D0100020CC100020FCB0000814B10008B7
:100CC00038B1000800000000000000000000000033
:100CD000074B01221A60202383F3118862B672B693
:100CE00083F3118862B6002383F3118862B67047DC
:100CF000B410002000000000000000000000000010
:100D0000044B01214FF080421960516A536A9942A5
:100D1000FCD07047B410002000000000000000006C
:100D20000078202383F31188054A064913688B4213
:100D300002D2591C11601870002383F31188704788
:100D4000C8100020C81000200000000000000000B3
:100D5000014B00221A6070479C1000200000000028
:100D6000024B0122C3E900339A60704790100020C3
:100D7000024B0022C3E900339A60704790100020B4
:100D8000024B0022C3E900339A60704790100020A4
:100D9000024B0022C3E900339A6070479010002094
:100DA000024B0022C3E900339A6070479010002084
:100DB000024B0022C3E900339A607047D00800203C
:100DC000024B0022C3E900339A607047D00800202C
:100DD000044B054A0021C2E90022C3E900339160B7
:100DE00099607047C0080020D00800200000000073
:100DF000044B054A0021C2E90022C3E9003399608F
:100E0000704700BFD0080020B80800200000000094
:100E1000044B054A0021C2E90022C3E9003399606E
:100E2000704700BFD0080020B80800200000000074
:100E3000064B074A07490020C1E90011C2E9002218
:100E4000C3E9003390609860704700BFC00800207D
:100E5000D0080020B80800200000000000000000BA
:100E6000202383F31188064A064913688B4203D274
:100E7000581C412110601970002383F311887047BA
:100E8000C8100020C8100020000000000000000072
:100E9000202383F31188064A064913688B4203D244
:100EA000581C422110601970002383F31188704789
:100EB000C8100020C8100020000000000000000042
:100EC000202383F31188064A064913688B4203D214
:100ED000581C432110601970002383F31188704758
:100EE000C8100020C8100020000000000000000012
:100EF000F0B4484ADFF820C112600223CCF8003079
:100F00008CB0202383F31188444C1168A0690691AA
:100F10004FF0FF3506A9012600270790CDE90867A5
:100F200011600A95002080F3118883F31188A46969
:100F300001941468009402266C460027CDE90267EC
:100F40000495146080F3118883F311881568954225
:100F500034D080F311880320CCF8000083F311888B
:100F6000134601E08B4243D018461B689342F9D1E7
:100F7000002383F31188202181F3118810689042A7
:100F800029D083F311880423CCF8003081F3118831
:100F9000204B01E0A34239D019461B689342F9D196
:100FA000002383F31188202181F311881168914275
:100FB00021D183F311880CB0F0BC70471849194C4B
:100FC000194A01230B7019492370116080F31188AD
:100FD0000CB0F0BC70471248124C13490122027049
:100FE00012482270086083F311880CB0F0BC70477F
:100FF000069B0360BCE70A480A4C0B4901220270B9
:101000000B482270086083F31188E1E7009B0B60B6
:10101000C6E700BFB4080020B4100020C0110020B3
:10102000D1100020D0100020CC10002054B10008B6
:1010300060B1000800000000000000000000000097
:10104000202383F31188034A92690023536383F3B7
:1010500011887047C011002000000000000000004F
:10106000F8B50E4B0E4F01261E600725002425FA09
:1010700004F3DB0706FA04F220460DD557F82430B6
:1010800025EA020501349847002DF0D1BDE8F8406B
:1010900004490548FFF74CBD0134E8E7B4100020CF
:1010A000ECCC000870B1000884B10008000000001A
:1010B000202383F31188034A92690023536383F347
:1010C00011887047C01100200000000000000000DF
:1010D000202383F31188034A92690023536383F327
:1010E00011887047C01100200000000000000000BF
:1010F000202383F31188034A92690023536383F307
:1011000011887047C011002000000000000000009E
:10111000202383F31188034A92690023536383F3E6
:1011200011887047C011002000000000000000007E
:10113000202383F31188054A92690023536383F3C4
:101140001188034A034B12601B607047C0110020D6
:10115000B4080020B00800200000000000000000DB
:101160000078202383F31188054A064913688B42CF
:1011700002D2591C11601870002383F31188704744
:10118000C8100020C810002000000000000000006F
:101190000B4BDA1D10B422F007020A4CD31AA4F14B
:1011A0000C01C3F5CC630020DB08536044F80C0C41
:1011B0001060CC6044E90220C4E9014010BC7047D3
:1011C000080A00207C100020000000000000000041
:1011D000044B00224FF4A4700421C3E90020C3E9AA
:1011E00002127047F8090020000000000000000013
:1011F000704700BF00000000000000000000000079
:10120000024B0022C3E900339A607047E8090020CE
:10121000024B0122C3E900339A607047E8090020BD
:10122000024B0022C3E900339A607047B0090020E6
:1012300030B40B4A0B491260002402F1080001F19E
:10124000100542E90615A2F1180342F8084C02F80D
:10125000044C42E9041130BCC2E90120D06070475F
:10126000A00800209C0900200000000000000000F1
:1012700030B40B4A0B491260002402F1080001F15E
:10128000100542E90615A2F1180342F8084C02F8CD
:10129000044C42E9041130BCC2E90120D06070471F
:1012A000A00800209C0900200000000000000000B1
:1012B00030B40B4A0B491260002402F1080001F11E
:1012C000100542E90615A2F1180342F8084C02F88D
:1012D000044C42E9041130BCC2E90120D0607047DF
:1012E000A00800209C090020000000000000000071
:1012F000114B124A0020002110B443E90A01A3F166
:101300002004002143E90E22A3F1100043F8402CF1
:10131000103243E9084443E90400C3E9003310BC38
:1013200043F83C2C43F8301C03F82C1C43F8181CE1
:1013300043F8081C99607047780800208C09002049
:10134000114B124A0020002110B443E90A01A3F115
:101350002004002143E90E22A3F1100043F8402CA1
:10136000083243E9084443E90400C3E9003310BCF0
:1013700043F83C2C43F8301C03F82C1C43F8181C91
:1013800043F8081C99607047780800208C090020F9
:101390000020704700000000000000000000000076
:1013A000034B00220421C3E90021C3E90212704764
:1013B00028080020000000000000000000000000DD
:1013C0002DE9F843DFF8A081684B694C0122C8F889
:1013D000002020250422002085F31188216819604F
:1013E000236080F311886168013A0B44F4D1022331
:1013F000C8F8003004264FF02009154689F31188FB
:101400002768DFB13B68236085F31188013EF5D181
:101410000323C8F80030202383F3118823680BB31B
:101420001B68236086F31188524C5348534A544931
:101430001160012323700370BDE8F883E368002B7B
:1014400055D0D4E90101984787F311880028DDD1F0
:10145000484C4948494A4B491160012323700370A5
:10146000BDE8F883E368002B74D0D4E90101984704
:1014700086F311880028D7D13C4B0422C8F80020FD
:1014800003F11006202500201A4685F311882168F3
:1014900043F8041B226080F311889E42F4D1052397
:1014A000C8F80030042520274FF0000987F3118881
:1014B000266896B13368236089F31188013DF5D120
:1014C0000623C8F80030202383F3118823688BB1EA
:1014D0001B68236085F31188A6E7E3683BB1D4E974
:1014E0000101984786F311880028B1D0E6E783F31D
:1014F0001188ADE7E36883B3D4E90101984785F328
:101500001188002890D1204907220423C8F8002020
:101510000022C4E90023C4E90231202383F31188A7
:10152000256865B12B68236082F31188114C12483D
:10153000124A164911600123237003707CE7E368A7
:1015400073B1D4E90101984785F3118800283FF46D
:1015500073AFEBE786F311888EE785F31188D2E746
:1015600083F3118868E700BFB41000207C090020D5
:1015700028080020D1100020D0100020CC1000201E
:1015800094B1000888B1000891130008A4B10008C4
:10159000054B002204200421C3E90401C3E9003300
:1015A000DA609A619A607047080800200000000025
:1015B000054B002204200421C3E90401C3E90033E0
:1015C000DA609A619A607047080800200000000005
:1015D0000B4BDA1D10B422F007020A4CD31AA4F107
:1015E0000C01C3F178030020DB08536044F80C0CB5
:1015F0001060CC6044E90220C4E9014010BC70478F
:10160000E00800206C09002000000000000000003D
:101610000E4A10689169036810B401245A6080F87A
:101620002040002481F8204013608C6890619A6803
:10163000A24203D31B689A68A242FBD25A6810BC2C
:10164000C1E9003211605960FEF73ABEC0110020B6
:10165000F8B5214C07462026002527E085F31188A0
:1016600086F311882268A36992689B689A422ED2F9
:1016700085F3118886F311882268A36992689B68B4
:101680009A4221D285F3118886F311882268A369D2
:1016900092689B689A4214D285F311883B68A269CC
:1016A00004333B6092F821305B0713D486F3118832
:1016B0002268A36992689B689A42CFD3FFF7A8FF7C
:1016C000CCE7FFF7A5FFE7E7FFF7A2FFDAE7FFF7B1
:1016D0009FFFCDE7F8BD00BFC01100200000000053
:1016E00030B51B4DA9698C6A486201F1280C64452C
:1016F00013D04FF0000E2268154BA0688A6284F860
:1017000020E01B689A688242FBD25A68C4E9003222
:1017100014605C608C6A6445EDD191F822303BB96D
:1017200091F821309B0703D1D1E9043213615A614A
:1017300028680F2381F8203003682B6001225D6048
:1017400080F82020A861BDE83040FEF7B9BD00BF99
:10175000C011002000000000000000000000000098
:10176000202383F31188FFF7BBBF00BF00000000F8
:1017700010B52023044683F31188184A9368013B6F
:10178000002B936012DB002383F311882023207841
:1017900083F31188124A134913688B4202D2591CF1
:1017A00011601870002383F3118810BD0E4B506830
:1017B0009969C1E900204A620160186851604FF0E0
:1017C000050C81F820C002681A605360012280F87D
:1017D00020209861FEF774FDD5E700BF901000202F
:1017E000C8100020C8100020C01100200000000018
:1017F00070B55F4C0546A369202282F31188026B05
:1018000000F12C06C3E9006241215962136090F88F
:10181000202003630E2A71D0A16920680C2381F86F
:101820002030036823605C60012380F82030A061D1
:10183000FEF746FD002181F311882022A36982F37F
:1018400011882A6B1E6042205A60586213602B6315
:1018500095F820300E2B7CD0A16920680C2381F8EC
:101860002030036823605C60012380F82030A06191
:10187000FEF726FD002181F311882022A36982F35F
:1018800011882A6B1E6043205A60586213602B63D4
:1018900095F820300E2B4ED0A16920680C2381F8DA
:1018A0002030036823605C60012380F82030A06151
:1018B000FEF706FD002181F311882022A36982F33F
:1018C00011882A6B1E6044205A605862136095F894
:1018D00020202B630E2A20D0A16920680C2381F8D8
:1018E00020300368236001225C6080F82020A06122
:1018F000FEF7E6FC002383F3118870BD00238168A6
:1019000080F8203023461B689A688A42FBD25A68C6
:10191000C5E9003215605D607EE7A868144B85F864
:1019200020101B689A688242FBD25A68C5E90032CF
:1019300015605D60D0E7A8680D4B85F820101B6826
:101940009A688242FBD25A68C5E9003215605D6030
:10195000A2E7A868064B85F820101B689A688242A7
:10196000FBD25A68C5E9003215605D6074E700BFBC
:10197000C011002000000000000000000000000076
:10198000F8B50D4C2023A76983F3118803260125A0
:10199000A169206881F82060036823605C6080F89A
:1019A0002050A061FEF78CFC7B6A002BF0D0002356
:1019B00083F31188F8BD00BFC011002000000000B3
:1019C0002DE9F041174FBB6993F821305A0727D40E
:1019D000154C4FF020080526012507E0002383F36E
:1019E0001188BB6993F821305B0719D488F31188FB
:1019F000A368013B002BA360F0DAB96963684C620D
:101A0000C1E900431960386881F8206003686160AB
:101A10005F6080F820503B60B861FEF751FCDDE765
:101A2000BDE8F081C0110020E8090020000000009E
:101A3000F8B50C68A1420D460646174603D10DE0E5
:101A40002468A5420AD008223146A018FEF748FEB5
:101A50000028F5D114B100242046F8BD202383F3DB
:101A600011883C6884B123683B60002383F31188AC
:101A70000822A0183146FEF737FC2B680122C4E982
:101A8000003220462C60F8BDFB684BB1D7E901015C
:101A900098470023044683F311880028E8D1DAE749
:101AA00083F31188D7E700BF0000000000000000AA
:101AB0002DE9F0476B4EDFF8B091B3696B48996838
:101AC0006B4B6C4C01220539C9F800206A4A09F0B9
:101AD00037F8B369684A99682060684B68480439E8
:101AE00009F02EF8B269674B91686060624A6648F7
:101AF000033909F025F8B269644B9168A0605E4A29
:101B00006348023909F01CF8B269E0609168614BE2
:101B1000594A6148013909F013F82746206104F158
:101B20001405A0464FF0000A54F8040B18B109F050
:101B3000AFFA44F804ACAC42F6D158495848FEF725
:101B4000F7FF824608B1BDE8F087B3694A4A996851
:101B5000514802230139C9F800304E4B08F0F0FF1C
:101B6000B369C8F810009968434A484B484802399D
:101B700008F0E6FFB369C8F80C0099683E4A414B8B
:101B80004148033908F0DCFFB369C8F808009968D8
:101B9000394A3A4B3A48043908F0D2FFB369C8F8D9
:101BA00004009968344A324B3048053908F0C8FFC0
:101BB000C8F80000DFF8BC80444654F8040B18B1A4
:101BC00009F066FA44F804ACAC42F6D13349344823
:101BD000FEF7AEFF04460028B5D1B369264A9968DE
:101BE000274803230439C9F80030244B08F0A8FF24
:101BF000B369214A9968C8F804001D4B1B48053990
:101C000008F09EFFB3691C4A9968C8F80000214B90
:101C10002148013908F094FFB369174A9968C8F858
:101C200010001A4B1A48023908F08AFFB369C8F845
:101C30000C009968104A134B1348033908F080FFD1
:101C4000C8F8080057F8040B18B109F021FA47F852
:101C5000044CAF42F6D1BDE8F04710491048FEF7FA
:101C600067BF00BFC0110020B4100020080A002088
:101C7000D4B10008A0100020210D0008C0B1000858
:101C8000500B0020C4B10008980C0020C8B1000817
:101C9000E00D0020CCB10008280F002070B1000832
:101CA000D0B10008000000000000000000000000AB
:101CB00070B5074C002604F1140554F8040B18B154
:101CC00009F0E6F944F8046CAC42F6D170BD00BFEF
:101CD000A010002000000000000000000000000034
:101CE00070B5074C002604F1140554F8040B18B124
:101CF00009F0CEF944F8046CAC42F6D170BD00BFD7
:101D0000A010002000000000000000000000000003
:101D100070B5074C002604F1140554F8040B18B1F3
:101D200009F0B6F944F8046CAC42F6D170BD00BFBE
:101D3000A0100020000000000000000000000000D3
:101D400038B51A4B1A4C9B691A4A99681A480125EA
:101D500029440023256008F0F3FE184A022323607B
:101D6000106009F045F9164B1D689D4214D1AB680F
:101D70004BB90323236009F03BF92B68AB420BD12D
:101D80009B6803B938BD0F4C0F48104A10491160C9
:101D900001232370037038BD0A4C0B480B4A0D49D0
:101DA000116001232370037038BD00BFC0110020F3
:101DB000B4100020F13A0008080A0020A01000200A
:101DC00090100020D1100020D0100020CC10002056
:101DD000E8B10008D8B100080000000000000000D1
:101DE0002DE9F0415B4B5C4F5C4D01223A6003F101
:101DF00010062024002053F8042B84F3118829684E
:101E000011602A6080F31188B342F4D1544A5548D6
:101E10009169554A8E68554C0323711E3B6008F04A
:101E20006FFDB11E524A2060524808F069FDF11E54
:101E3000514A6060514808F063FD311F504AA0606C
:101E4000504808F05DFD711FE0604F4A4F4808F0B0
:101E500057FD04233B60236820610646002B41D0D8
:101E60006368002B3ED0A368002B3BD0E368002BB7
:101E700038D0002840D105233B6004F1140854F801
:101E8000040B18B109F004F944F8046C4445F6D188
:101E90003F494048FEF74CFE00282BD106233B600B
:101EA00004244FF02008064688F311882F68002F7D
:101EB0002CD03B682B6086F31188013CF4D12023A1
:101EC00083F311882B68002B33D01B682B6084F3BD
:101ED0001188314C3148324A324911600123237054
:101EE000037007E02C4C2D482D4A2F491160012327
:101EF00023700370BDE8F081274C2848284A2B49FD
:101F00001160012323700370BDE8F081EB68D3B149
:101F1000D5E90101984787F311880028CDD11E4CDF
:101F20001E481F4A22491160012323700370BDE837
:101F3000F081EB6853B1D5E90101984784F311882A
:101F40000028D7D0C5E783F31188E8E784F3118828
:101F5000D0E700BFF8CC0008B4100020F80900203A
:101F6000C0110020FCB10008CCB10008A010002076
:101F7000C8B1000804B20008C4B100080CB20008DF
:101F8000C0B1000814B20008D4B100081CB20008A7
:101F900070B1000858B20008D1100020D010002005
:101FA000CC10002070B2000824B200083CB2000837
:101FB00060B2000800000000000000000000000007
:101FC00008F026BC00000000000000000000000037
:101FD00008F01EBC0000000000000000000000002F
:101FE00008F016BC00000000000000000000000027
:101FF0002DE9F041434E012382B033604224204654
:102000004FF0FF3108F09CFB0134054600283DD11C
:10201000462CF4D1022301215820336008F090FBB4
:10202000013033D14FF0200888F31188364C277DDA
:10203000002F63D1D4E900212369881AB3EBA00FE4
:102040002FD0A568281DA06081424FF05806216A54
:102050002E482E6088BFA268A260013381422361AE
:1020600048D00B682362002258608868284B4A6277
:1020700081F820201B689A688242FBD25A680020AF
:10208000C1E900321160596080F31188214C224867
:10209000224A2349116001232370037002B0BDE876
:1020A000F08187F311880121582008F0E1FA01300E
:1020B000ECD188F31188582008F09AFA87F3118838
:1020C0000130E3D10323336008F0A2FB0423012194
:1020D0000DEB03002775336008F02AFA0130D5D1E3
:1020E00088F3118801A808F0EBF987F31188013013
:1020F000D4D0CBE7002383F31188C7E785F3118899
:10210000C4E700BFB410002088080020A808002001
:10211000C0110020D1100020D0100020CC100020D1
:1021200084B2000800000000000000000000000071
:1021300030B5254C254D237D012285B02A606BB139
:102140002268E368934211D0214A224C2248234955
:102150000123237003700A6005B030BD102168466A
:1021600008F08EF80028EBD01D4AEEE7A2689342F3
:10217000EAD12369002BE7D1237D02222A6093B99B
:10218000102008F0EDF808280DD1D4E9022393427D
:1021900013D0104C1048114A0D49116001232370CF
:1021A000037005B030BD0B4C0B480C4A0C49116054
:1021B00001232370037005B030BD22689342E8D13B
:1021C0002369082BE5D1C7E738080020B4100020A8
:1021D0009CB20008D1100020D0100020CC100020AC
:1021E000B0B2000800000000000000000000000085
:1021F000084B10B54FF47A7001241C6008F028F9E0
:1022000000B910BD04480549054B064A04700C701E
:102210001A6010BDB4100020D1100020D010002092
:10222000CC10002094B10008000000000000000065
:10223000704700BF00000000000000000000000028
:10224000704700BF00000000000000000000000018
:10225000FEE700BF000000000000000000000000DA
:1022600070B5134D05F1800455E90301884255F816
:10227000102C0DD2043A034652F8046F43F8046B55
:102280008B42F9D34B1E1B1A23F00303043318446B
:1022900055F8042C824207D9013A121A22F003029F
:1022A00004320021FEF754F81035A542DCD170BD90
:1022B0001CCD00080000000000000000000000002D
:1022C0002DE9F0474FF080473B699B070BD4202353
:1022D00083F31188364B5B6813F4006350D183F3AA
:1022E0001188BDE8F08700243C61202383F3118826
:1022F000DFF8C080786AD8F81C30D8F828209968B0
:10230000A0EB0209894508F11C0A28BF264624D300
:10231000202501E0D8F8282018680A445045C8F85C
:102320002820A9EB0109DA68C0F804A0C8F81C004D
:10233000DC6008BFFC6086F311881869904785F35C
:102340001188D8F81C3099688945E3D2786AD8F8A2
:102350002820A0EB02098945DAD253450CD09968B0
:10236000C8F82800091A0A444FF08041022A2CBFFD
:10237000801802309A604863002383F31188A6E72F
:10238000EFF309834FF0807243F8042CA3F120028D
:1023900082F30988074A11689269896892689142B4
:1023A0008CBF054A054A43F8082CBDE8F08700BFFA
:1023B00000ED00E0C0110020E1020008E402000886
:1023C0002DE9F04F8C4CD4F874A0DAF80C90DAF8C0
:1023D0000030D90583B09DB200F19C80202383F3A7
:1023E000118815F02F0F5DD0844F4FF0000807F1D2
:1023F00008060BE0A906DAF8043094F878B020D487
:10240000DAF8003013F02F0F9DB24BD02A07F1D02D
:1024100045F30001C5F3C00301F0200141EAC311F7
:10242000AB0748BF41F04001680748BF41F48071E5
:102430003846FEF7EDFAA906DAF8043094F878B0D9
:10244000DED56269002A47D0D4E908218A424DD0FE
:1024500061690BEA030B0131531C2362616182F84D
:1024600000B0D4E90732E1689A4224BFA36923622D
:10247000B142C5D00B68E36088685E60604BC1F80C
:10248000248081F820801B689A688242FBD25A68B7
:102490000B604A6011605960DAF8003013F02F0FBA
:1024A0009DB2B3D1002383F3118819F0800F01D0BE
:1024B0002A0657D419F0400F01D06B061FD42023F1
:1024C00083F311884F4B5B6813F4006332D183F3BD
:1024D000118803B0BDE8F08F042148480193FEF74E
:1024E00097FAD4E908218A42019BB1D16169002998
:1024F000AED042484FF48061FEF78AFA80E720238D
:1025000083F31188D4E911239A4259D0002383F32D
:102510001188D4E7202383F311884FF40071201D24
:10252000FEF776FA6FF48073CAF80030002383F365
:10253000118853E7EFF309834FF0807243F8042CBE
:10254000A3F1200282F309882D4A116892698968F3
:10255000926891428CBF2C4A2C4A43F8082C03B055
:10256000BDE8F08F202383F31188D4E911239A4228
:1025700034D0A26B0132A2635A1CA2641E78236C71
:102580009A4201D3E36BA364216B214B994211D092
:102590000A682263536000234B6281F82030886808
:1025A000174B1B689A688242FBD25A680B604A60DC
:1025B00011605960CAF80460002383F3118879E739
:1025C000A36B002BA2D00D481021FEF721FA4FF685
:1025D000BF7309EA0303CAF80C3097E7A26B002A1D
:1025E000C7D006480821FEF713FA4FF67F7309EAB1
:1025F0000303CAF80C30DFE7441100204811002023
:10260000C011002000ED00E0E1020008E402000833
:102610007411002000000000000000000000000015
:10262000874A88481369DFF820C22DE9F04F40F24D
:10263000FF14234313611169DFF81092DFF810A231
:10264000DFF81082DFF810E2844F6FF308011161A8
:102650001169116B21431163116D21430023116531
:102660007F4C166D43606FF4A84585604FF6FF718F
:10267000C4607C4C416104627B4C446204F12A5486
:1026800004F5B01404604FF41070C9F804004FF062
:10269000FF30C9F80800C9F80CA04FF0806AC9F8EB
:1026A00014104FF0400BC9F820A0DFF8C0A1C9F802
:1026B00024B0C9F800A009F1A25909F5443909F577
:1026C000AA79C8F80430C8F80800C8F80C904FF090
:1026D000C049C8F81410C8F82090DFF89491C8F8E1
:1026E0002490DFF89091C8F80090DFF88C81CEF844
:1026F0000430624ECEF80800614DCEF80C80614C7B
:1027000040F6FF78CEF81480DFF87C81CEF82030D8
:10271000CEF82430CEF80080CCF80430CCF8080095
:10272000CCF80C30CCF81410CCF82030CCF8243095
:10273000CCF800B07B60B860FB6079613B627B6283
:102740003B607360B060F3607161336273623360E9
:102750006B60A860EB6069612B626B622B606360E9
:10276000A060E36061614FF0805123626362236087
:10277000116446494FF440430B60136843F0010372
:10278000136013689D07FCD593682D4923F003035C
:1027900093608B6813F00C03FBD10A68284802F0A1
:1027A000F9020A608B600B6843F480330B600368A6
:1027B0009C03FCD5436F224A43F001034367536FE8
:1027C0009907FCD5324B53601368304943F080734E
:1027D00013604B685A04FCD5194A13689B01FCD559
:1027E0002C4B2D4991601A682C4B9A421ED02C4BD1
:1027F00040F205721A602A4A136803F00F03052B92
:10280000FAD10F4A936843F002039360936803F090
:102810000C03082BFAD1536C43F480435364536E7A
:1028200043F480435366536EBDE8F08F1D4A1E4B40
:1028300012689A42DBD11A4B40F205121A60DAE7AD
:102840000038024000000240001002400004024034
:102850001545515500080240000C0240001402408A
:10286000540001400000565500AA0A0080200800CC
:102870000006060001802002555055000018024055
:10288000001C024000200240000100550070004082
:1028900008544007002004E00094883811640020A8
:1028A000003C024000ED00E041C20F41000000008A
:1028B00030B5214CA646C0E903235EF81C3F02292F
:1028C0004FF0804C38BF02217345DCF8242022D021
:1028D000A56A521B89189A6815D2914217D3914262
:1028E00004D91B68891A9A688A42FAD35A68C0E9DF
:1028F00000321060586081609A684FF0FF30521AC1
:102900009A60606230BD1B68891A9A68E7E70D44D7
:10291000CCF83450EAE7A262C4E907000A44C0E9EF
:102920000033002402238160CCF83420CCF810401E
:10293000CCF80C3030BD00BFC011002000000000FA
:102940001A4A0368D169814210B40DD041681C3223
:10295000002493420B605960C46003D09A68816878
:102960000A449A6010BC70471046002440F81C3F8F
:1029700083425860CC6015D098688968926A014497
:102980004FF080449960636A981A8142EAD9D31A59
:102990000B44012B98BF811C4FF080430A4410BCAC
:1029A0005A6370474FF08043DC60DBE7C0110020C2
:1029B00030B5202387B083F31188144C144AA569DD
:1029C00001212B4601A8FFF773FF2068082385F833
:1029D0002030036823605C60012380F820302946A2
:1029E000A061FDF76DFC049B13B101A8FFF7A8FFE0
:1029F000002383F31188202282F311884FF0804254
:102A0000506A83F3118807B030BD00BFC0110020A9
:102A10003109000800000000000000000000000074
:102A20002DE9F047404D01232B60202787F31188C3
:102A30003E4EB269536B43F0070353634FF00008F7
:102A400088F3118802232B6008F052F8012847D13F
:102A5000044608F04DF8022842D108F049F804284D
:102A600081463DD187F31188B369D3F834A0C3F808
:102A7000348088F31188BAF1000F3BD103232B6017
:102A8000FFF796FFB3692A4A9968804601392948B9
:102A900008F056F8C5F80090274D286008F028F88F
:102AA0004FF080435B6AA3F5FA73A3EB0803132B83
:102AB00031D8012827D187F31188B3695C6BC3F83B
:102AC00034A08AF31188ACB905F1140655F8040B4B
:102AD00018B108F0DDFA45F8044CAE42F6D107E033
:102AE000164C1748174A18491160012323700370C8
:102AF000BDE8F087114C1248124A144911600123B5
:102B000023700370F4E70D480D490E4B104A047012
:102B10000C701A60ECE7094809490A4B0D4A047029
:102B20000C701A60E4E700BFB4100020C011002050
:102B3000714E0008080A0020A0100020D1100020CB
:102B4000D0100020CC100020BCB20008D0B2000889
:102B5000F0B20008DCB20008000000000000000035
:102B6000F8B5554E01273760202282F31188534C67
:102B7000A1694B6B43F0050300204B6380F3118880
:102B80000223A569336082F311886A6B002A52D050
:102B900000236B6383F31188052A43D1202585F335
:102BA0001188A269516B536383F31188002954D1B2
:102BB00003233360FFF7FCFEA369414A9968074687
:102BC0000139404807F0BCFF3F4B186004233360D5
:102BD000A66985F31188726B002A50D000217163B9
:102BE00081F311884FF080435B6AA3F5FA73D81B19
:102BF00013283BD8012A55D1202383F31188A369D8
:102C00005D6B596381F311883DBB2F4C04F11406B1
:102C100054F8040B18B108F03BFA44F8045CA642DF
:102C2000F6D1F8BD294C2A482A4A2B4911600123C4
:102C300023700370F8BDA16920684FF0FF336B6209
:102C40000A2381F82030036823605C6080F82070DC
:102C5000A061FDF735FB6A6B9AE71C4C1C481D4AC6
:102C60001E491160012323700370F8BD174C1848EA
:102C7000184A1B491160012323700370F8BDA16934
:102C800020684FF0FF3373620A2381F82030036815
:102C900023605C60012380F82030A061FDF710FB09
:102CA000726B9BE7094C0A480A4A0E4911600123DE
:102CB00023700370F8BD00BFB4100020C0110020C5
:102CC000714E0008080A0020A0100020D11000203A
:102CD000D0100020CC10002004B30008D0B20008AF
:102CE000DCB20008F0B200080000000000000000A4
:102CF000F8B5524D01272F60202282F31188504CE5
:102D0000A1694B6B43F0050300204B6380F31188EE
:102D10000223A6692B6082F31188736B03F005020E
:102D2000052A0FD0A1692068052373620B2381F85F
:102D30002030036823605C6080F82070A061FDF79C
:102D4000BFFA736B23F005037363002383F31188C9
:102D5000202686F31188A269516B536383F311888F
:102D6000002961D103232B6086F31188A269536B7C
:102D700043F00403536381F3118804232B60FFF7AE
:102D800017FEA3692F4A9968074601392E4807F0B4
:102D9000D7FE2E4B05222A601860A56986F311889C
:102DA0006B6B03EA0201914224D123F005036B63AC
:102DB000002282F311884FF080435B6AA3F5FA7317
:102DC000DB1B132B27D8202383F31188A369596BAE
:102DD0005A6382F3118839BB1C4C04F1140554F872
:102DE000040B20B108F054F9002344F8043CA54238
:102DF000F5D1F8BDA16920686A620B2381F8203003
:102E0000036823605C60012380F82030A061FDF737
:102E100057FA6B6BC9E70E4C0E480F4A0F49116009
:102E2000012323700370F8BD094C0A480A4A0C4973
:102E30001160012323700370F8BD00BFB41000209F
:102E4000C0110020714E0008080A0020A0100020C8
:102E5000D1100020D0100020CC100020DCB20008DF
:102E6000D0B20008000000000000000000000000D8
:102E7000F0B5194C4B1CA769256887B006461AD0D7
:102E8000164A3B4601A8FFF713FD87F820602B6820
:102E900023605C60012385F8203039462846A5610F
:102EA000FDF70EFA049B13B101A8FFF749FDA369D2
:102EB000586A07B0F0BD87F820002B682360012214
:102EC0005C602846394685F82020A561FDF7F8F9B1
:102ED000A369586A07B0F0BDC0110020310900088D
:102EE0002DE9F04F85B0D0F81C80019316464FF0C5
:102EF000200989F311888AB34646044692464FF06A
:102F0000000B03928846A268D4E90470524534BF8E
:102F1000A56855463F1AAF424AD826D23A4641469E
:102F2000FDF752FCEA1B08EB0701E0680292FDF78F
:102F30004BFC029AE1681144A2686161521BA260D5
:102F40000EB12046B0478BF31188AAEB050AA844BE
:102F500089F31188BAF1000FD5D1039E30460023C2
:102F600083F3118805B0BDE8F08F41462A46FDF78E
:102F70002BFCE168A2686161521BA260002DDFD1C9
:102F8000019B63B10E4B60689A690199C2E90040E8
:102F9000026062600420FFF76BFF0028B3D0039E3D
:102FA0000023A6EB0A0083F3118805B0BDE8F08F7B
:102FB00041462A46FDF708FC61692944DAE700BF6B
:102FC000C011002000000000000000000000000010
:102FD0004FF0FF333030FFF783BF00BF0000000029
:102FE0003030FFF77DBF00BF000000000000000090
:102FF00070B52023044683F3118883688BB90D468E
:1030000029B3164EB36962682946C3E90042042019
:1030100013606360FFF72CFF00281ADBA368002B06
:10302000F0D0A368A169013BA36023694A1C9A42BE
:1030300028BFE368A2610D7828BFA361E3690BB1E3
:1030400020469847002383F31188284670BD4FF02F
:10305000FF30002383F3118870BD00BFC011002032
:103060004FF0FF310C30FFF7C3BF00BF000000007E
:103070000C30FFF7BDBF00BF0000000000000000E3
:103080002DE9F04F85B0D0F81C80019316464FF023
:10309000200989F31188002A31D046460446924619
:1030A0004FF0000B03928846A268A1692769524538
:1030B00034BFA56855467F1AAF424AD826D23A4651
:1030C0004046FDF781FBEA1BE168029208EB07002E
:1030D000FDF77AFB029AE1681144A268A161521BD4
:1030E000A2600EB12046B0478BF31188AAEB050A07
:1030F000A84489F31188BAF1000FD5D1039E304658
:10310000002383F3118805B0BDE8F08F2A464046BE
:10311000FDF75AFBE168A268A161521BA260002D75
:10312000DFD1019B63B10E4B60689A690199C2E9D6
:103130000040026062600420FFF79AFE0028B3D0CE
:10314000039E0023A6EB0A0083F3118805B0BDE8B7
:10315000F08F2A464046FDF737FBA1692944DAE79C
:10316000C01100200000000000000000000000006E
:103170004FF0FF330C30FFF783BF00BF00000000AB
:103180000C30FFF77DBF00BF000000000000000012
:10319000F8B504460F46202383F3118883688BB962
:1031A000154622B3154E6068B3692946C3E900404D
:1031B000036004206360FFF75BFE002819DBA3684F
:1031C000002BF0D06269A368511C013B6161A360D0
:1031D0001770D4E904329A4224BFE3686361E3695B
:1031E0000BB120469847002080F31188F8BD4FF0BE
:1031F000FF30002383F31188F8BD00BFC011002009
:103200004FF0FF323030FFF7C3BF00BF00000000B7
:103210003030FFF7BDBF00BF00000000000000001D
:103220002DE9F041394E01234FF080443360D4F84A
:103230002480202585F3118864210820FFF718FEDB
:10324000002787F31188636A643BA3EB0803022B12
:103250004ED802233360D4F8248085F311884FF4CC
:103260007A710820FFF704FE87F31188636AA3F5DB
:103270007A73A3EB0803022B3AD803233360D4F804
:10328000248085F311884FF47A710820FFF7F0FD50
:1032900087F31188636AA3F57A73A3EB0803022B03
:1032A00026D804233360D4F8248085F3118842F2B1
:1032B00010710820FFF7DCFD87F31188636AA3F51E
:1032C0001C53103BA3EB0803022B11D805233360DA
:1032D000666A643685F31188616A711A12D1002317
:1032E00083F311884FF080435B6A9B1B022B07D945
:1032F000074C0848084A09491160012323700370EC
:10330000BDE8F0810820FFF7B3FDE8E7B410002026
:10331000D1100020D0100020CC100020DCB200081A
:103320002DE9F8433A4C3B4FA3693B4A99683B4827
:103330003B4B3C4D4FF001080139C7F8008007F0C6
:10334000FFFB2023286083F31188A1692068364E93
:10335000032381F8203003684E625C6080F820808F
:1033600023603160A061FCF7ABFFA369D3F8248030
:10337000002383F311883368002B35D1B8F1000F97
:1033800028D105F1140955F8040B18B107F080FE97
:1033900045F8048CA945F6D102233B60202383F332
:1033A00011884FF08045A3696C6A5E6242F2107129
:1033B00003203360FFF75CFD002383F311886B6A01
:1033C000A3F51C53103B1B1B022B17D833685BB9AA
:1033D000013011D0154C1648164A174911600123C7
:1033E00023700370BDE8F883104C1148114A13494B
:1033F0001160012323700370BDE8F8830B4C0C4867
:103400000C4A0F491160012323700370F4E700BFD9
:10341000C0110020B410002051430008080A002009
:10342000CCB10008A01000209C100020D11000207A
:10343000D0100020CC10002028B300081CB30008D6
:10344000DCB20008000000000000000000000000E6
:103450002DE9F84F674E01233360202585F311884D
:10346000654CA1684A1E002AA2600BDB002282F391
:103470001188624C6248634A63492370037011608B
:10348000BDE8F88FA160002383F311882368A3426D
:1034900059D1A768002F60D1DFF870815C4A5D4880
:1034A00002233360D8F8183099683B46013907F099
:1034B00047FB594B186085F31188A368013B002B2B
:1034C000A36054DB4FF0000A8AF31188524D05F1D6
:1034D000140955F8040B18B107F0DAFD45F804ACEF
:1034E000A945F6D137BB2368A3422CD1A368002B92
:1034F00033D103233360FFF75BFADFF820A1DFF855
:1035000020B1064641254FF0200989F31188DAF8E9
:1035100000305B4503D25A1CCAF800201D7087F3A7
:10352000118889F31188A368013B002BA3602DDB70
:1035300087F31188314C3248324A334911600123F4
:10354000237003709CE72D4C2D482E4A354911609D
:10355000012323700370BDE8F88F284C2848294ABE
:1035600031491160012323700370BDE8F88FD8F84A
:10357000183062685C62C3E9004241F2883113602E
:1035800005206360FFF774FC07469BE7D8F8183006
:1035900062681C605A605C624FF4FA711360052027
:1035A0006360FFF765FC87F311880130C2D123689F
:1035B0000135A342EDB2C6D1A368002BCDD1462D73
:1035C000A3D11A491A48FDF7B3FA00287FF458AF7F
:1035D0004FF080435B6AA3F6C4139B1B132B7FF64B
:1035E0004FAF064C0648074A124911600123237069
:1035F000037045E7B410002090100020D110002087
:10360000D0100020CC10002084B20008C01100208F
:10361000D1430008080A0020A0100020C810002094
:10362000C8100020D8B10008E8B1000870B1000847
:10363000D0B10008DCB2000800000000000000006B
:1036400070B54848484C01230360A169202383F3E7
:1036500011884B6B002B4FD183F31188A169202275
:1036600082F311884B6B002B59D183F31188A16928
:1036700082F311884D6B013562D083F311880223E8
:10368000A669036082F31188756B002D4CD06B42E4
:1036900005EA030225EA03057563002383F3118815
:1036A000002A33D1A569202383F311886E6B002E85
:1036B00048D14FF0FF336B624FF4FA710A20FFF7E5
:1036C000D7FB002846DB6B6B6E6386F31188EBB982
:1036D000A469202383F31188636B013309D04FF071
:1036E000FF3363624FF4FA710B20FFF7C1FB002830
:1036F00033DB0023636314E05A4223EA02054D637F
:103700001A40002383F31188002AA7D0174C1848C9
:10371000184A1949116001232370037070BD0023FA
:103720004B6383F31188F1E74FF0FF3373624FF47B
:10373000FA710A20FFF79CFB002808DB756BA6E7EF
:103740004B63EEE700236B6383F31188DEE785F3B9
:103750001188A7E786F31188BAE7002383F311885D
:1037600070BD00BFB4100020C0110020D110002097
:10377000D0100020CC10002040B300080000000052
:103780002DE9F04FDFF8C0814FF0010B8FB0C8F882
:1037900000B0202585F311886C4E6D4C336808937A
:1037A0000DEB050AA36909934FF0FF3201200021B8
:1037B000CDE90A01C6F800A00C92002383F311881A
:1037C00085F31188634F0692A26903920DF10809EF
:1037D0003A68029204200021CDE90401C7F8009064
:1037E00083F311880222C8F8002085F3118808208D
:1037F0005946FFF73DFB002383F3118885F31188B9
:103800004FF08042526A009283F31188A369524AB2
:1038100099685248524B013907F092F9514BA2690D
:1038200018600323C8F8003085F31188536B03F048
:103830000501052911D0A169206801920523536271
:103840000B2381F82030036823605C6080F820B08F
:10385000A061FCF735FD019A536B23F00503536318
:10386000002282F311884FF0804300995B6AA3F530
:10387000FA735B1A132B45D8202383F31188A369AD
:103880005D6B5A6382F31188002D46D1354C04F1EB
:10389000140B54F8040B18B107F0FAFB44F8045C5D
:1038A000A345F6D10423C8F80030202383F3118800
:1038B000264B01E0534544D01A461B68B342F9D168
:1038C000002383F31188202383F31188214B01E027
:1038D0004B452DD01A461B68BB42F9D1002383F318
:1038E00011883368B34202D13B68BB4212D01E4CF0
:1038F0001E481F4A1F4911600123237003700FB037
:10390000BDE8F08F184C1948194A1B491160012372
:10391000237003700FB0BDE8F08F134C1348144AA6
:10392000164911600123237003700FB0BDE8F08FBA
:10393000029B1360002383F311883368B342D3D012
:10394000D5E7089B1360BBE7B4100020B408002043
:10395000C0110020B0080020014F0008080A002014
:10396000CCB10008A0100020D1100020D010002001
:10397000CC10002060B10008DCB20008D0B2000812
:103980002DE9F84F0546202686F3118801210820ED
:10399000FFF76EFA4FF0000A8AF3118886F3118858
:1039A0004FF08043D3F824908AF31188364C05F108
:1039B0002C084FF0010B574619E0A16920680C2331
:1039C00081F82030036823605C6080F820B0A0613B
:1039D000FCF776FC87F311884FF0804342F20F72B8
:1039E0005B6AA3EB090393420AF1010A1BD8A3699E
:1039F00086F311882A6BC3F824B0C3E900821360F0
:103A000095F820202B630E2AD7D1A9681E4B85F884
:103A100020701B689A688A42FBD25A682B606A60E1
:103A200015605D60C9E7A369202282F311882A6BC3
:103A3000C3F800805F625A6013602B6395F82030F2
:103A40000E2B13D0A16920680C2381F82030036865
:103A500023605C60012380F82030A061FCF730FC1B
:103A6000002383F311885046BDE8F88FA968064B00
:103A700085F820701B689A688A42FBD25A68C5E9AB
:103A8000003215605D60DDE7C0110020000000001D
:103A900070B4154C8668A5694162A9688E424FF0E2
:103AA000000313D985F8203023461B689A68914299
:103AB000FBD35A68C5E90032156001225D602946D2
:103AC000A06180F8202070BCFCF7FABB80F82030A1
:103AD0002468A2689642FBD96268C0E9004210607F
:103AE000606070BC704700BFC01100200000000083
:103AF00010B5202383F311881A4CA368013B002BD7
:103B0000A36018DB002181F31188202383F311883F
:103B1000A36801338B42A36003DD002383F3118884
:103B200010BD2068036823605C60FFF7B1FF0023CD
:103B300083F3118810BD0C4B62689969C1E900429A
:103B40004C620520116081F82000186861600268ED
:103B50001A605360012280F820209861FCF7B0FBC6
:103B6000D0E700BF90100020C0110020000000002E
:103B700070B5514D514EAB6951489968514B524CFB
:103B8000012232600531514A06F0DAFFAB6920604C
:103B900099684E4A4E4B4F48013106F0D1FFAA6951
:103BA000606091684C4B494A4C48033106F0C8FFAD
:103BB000AA69A06091684A4B444A4A48043106F019
:103BC000BFFFAA69E0609168474B404A474802310D
:103BD00006F0B6FF022333602061202383F31188AF
:103BE000434CA3680133002BA36040DD002181F327
:103BF0001188202383F31188A36801338B42A360CB
:103C000052DD002181F31188202383F31188A368FA
:103C100001338B42A36040DD002181F31188202312
:103C200083F31188A36801338B42A3602EDD00214A
:103C300081F31188202383F31188A36801338B4219
:103C4000A3601CDD002686F311881F4C04F11405C7
:103C500054F8040B18B107F01BFA44F8046CAC429A
:103C6000F6D1BDE8704023492348FCF761BF2068C6
:103C70000368236000215C60FFF70AFFB6E7206855
:103C8000036823605C60FFF703FFDBE720680368DD
:103C900023605C60FFF7FCFEC9E7206803682360CF
:103CA0005C60FFF7F5FEB7E72068036823605C609F
:103CB000FFF7EEFEA5E700BFC0110020B410002002
:103CC000080A0020CCB10008A010002071170008DD
:103CD000C8B10008500B0020C4B10008980C0020A7
:103CE000C0B10008E00D0020D4B10008280F00206A
:103CF0009010002070B10008D0B100080000000052
:103D00002B4B2C4A9B692C4870B59E682B4D2C4B35
:103D10002C4C02212960711C06F012FF0323206045
:103D20002B60B11C284B294A294806F009FF0423BF
:103D300060602B60274A284B2848F11C06F000FFE2
:103D400005232B60A060202383F31188244C206876
:103D5000A04205D00368236000215C60FFF798FE55
:103D6000002181F3118806232B60202383F311881F
:103D70002068A04204D0036823605C60FFF788FEDF
:103D8000002686F311880F4C07232B6004F11405DD
:103D900054F8040B18B107F07BF944F8046CAC42FA
:103DA000F6D1BDE870400F490F48FCF7C1BE00BF17
:103DB000C011002001560008080A0020B41000209D
:103DC000CCB10008A0100020C4B100085155000873
:103DD000500B0020D1560008C8B10008980C0020F4
:103DE000B808002070B1000884B10008000000008D
:103DF0002DE9F84F304C314DA36931489968314E67
:103E0000DFF8C48001222A601144304A06F098FE8F
:103E10002F4A02232B60106004254FF0200A0D2743
:103E20004FF000098AF31188A1690B4653F82C0F53
:103E300098422ED00268CA62536080F8207089F3DD
:103E40001188D0F824B08AF311885946FFF720FE74
:103E500089F311888AF311883368434503D25A1CC9
:103E6000326083F800B089F31188013DDAD1184C33
:103E700004F1140654F8040B18B107F009F944F8DA
:103E8000045CB442F6D1BDE8F84F12491248FCF781
:103E90004FBE20680E2381F82030036823605C60E9
:103EA000012380F82030A061FCF70AFAA1690B46D3
:103EB00053F82C0FBEE700BFC0110020B410002043
:103EC000080A0020C8100020C8100020F1170008C0
:103ED000A010002070B1000858B2000800000000D7
:103EE0002DE9F843194E20254FF00E08012712E066
:103EF0000268CA620D2453604FF0000980F8204028
:103F000089F31188446A85F311882146FFF7C0FDC3
:103F100089F31188BCB185F31188B1690B4653F858
:103F20002C0F9842E4D1306881F820800368336018
:103F30005E6080F82070B061FCF7C2F9B1690B4691
:103F400053F82C0FD4E7BDE8F88300BFC011002060
:103F50000E4A10689169036810B401245A6080F811
:103F60002040002481F8204013608C6890619A689A
:103F7000A24203D91B689A68A242FBD85A6810BCB7
:103F8000C1E9003211605960FCF79AB9C0110020F4
:103F900008B5202383F31188002282F3118883F36C
:103FA0001188EFF311825AB9EFF3058283F3118878
:103FB000EFF30583C3F3080333B1002383F31188C0
:103FC000002383F3118808BD044B1A689B6992682B
:103FD0009B689A42F1D9FFF7BBFFEEE7C0110020C2
:103FE00030B5484C012387B02360EFF311836BB9E0
:103FF000EFF30583202383F31188EFF30583C3F3E5
:104000000803002B74D0002383F31188022323605C
:10401000202383F31188EFF3118262B9EFF3058255
:1040200083F31188EFF30583C3F30803002B55D006
:10403000002383F31188002383F311880323236073
:10404000EFF3118313B9202383F31188EFF3118366
:1040500013B9202383F31188002383F311880422EA
:104060002260202282F31188EFF311820AB183F3D8
:104070001188EFF3118313B1002383F31188052214
:10408000002304932260202383F31188049B01AC56
:1040900013B12046FEF754FC20461B4A00230121A1
:1040A000FEF706FC002484F31188202585F311888F
:1040B0000A210820FEF7DCFE84F3118885F31188BD
:1040C000049B84F311883BB1104C1148114A1249EA
:1040D000116001232370037007B030BD0F4B1A68C5
:1040E0009B6992689B689A42A2D9FFF731FF9FE7CC
:1040F0000A4B1A689B6992689B689A4283D9FFF7BA
:1041000027FF80E7B4100020913F0008D110002065
:10411000D0100020CC10002050B30008C0110020A7
:104120002DE9F041314CDFF8C880A269976801237E
:10413000C8F80030FD18202383F31188A369DE6BD3
:104140009A68964237D0954235D8DD6323689B68DC
:10415000934237D8002383F31188B74239D1A3693A
:104160009B689D421DD10223C8F80030202383F3B1
:104170001188A369D3F83C809A68904501D0974292
:1041800001D99E603246DE6323689B689A422AD337
:10419000002383F3118845451BD1A3699B689F4287
:1041A00007D0144C1448154A154911600123237097
:1041B0000370BDE8F0819D60DD6323689B682A463B
:1041C0009342C7D9FFF7C4FE002383F31188B74297
:1041D000C5D0084C0848094A0A49116001232370D8
:1041E0000370BDE8F081FFF7B3FED1E7C0110020F6
:1041F000B4100020D1100020D0100020CC100020DE
:1042000088B3000864B3000800000000000000004C
:104210002DE9F843454CDFF81891A3699D6805F135
:104220000208C3F808800223C9F800306E1C20235E
:1042300083F31188A369DF6B9A68974240D0964256
:104240003ED8DE6323689B689A4240D3002383F301
:104250001188BD4242D1A3699A68904548D1DB6B71
:104260009E424ED10323C9F80030EF18202383F378
:104270001188A369D3F83C809A68904501D0974291
:1042800001D99F603A46DF6323689B689A4241D315
:10429000002383F31188464520D1A26991688F429B
:1042A00026D1D26B974238D10422C9F800202022AF
:1042B00082F31188A2699560D56383F3118815E0B4
:1042C0009E60DE6323689B6832469A42BED2FFF747
:1042D0003FFE002383F31188BD42BCD0154C164825
:1042E000164A17491160012323700370BDE8F88353
:1042F000104C1148114A13491160012323700370B7
:10430000F4E70C4C0C480D4A0F491160012323704F
:104310000370EBE7FFF71CFEBAE7064C0648074AB6
:104320000A491160012323700370DFE7C0110020E8
:10433000B4100020D1100020D0100020CC1000209C
:1043400064B3000888B30008A4B30008CCB3000825
:1043500038B50546202383F31188184B184819688F
:1043600079B100228C681A604A6281F820200346E5
:104370001B689A68A242FBD25A68C1E900321160F8
:1043800059600268836992689B689A4212D8002338
:1043900083F311882023287883F31188094A0A4976
:1043A00013688B4202D2591C11601870002383F3EA
:1043B000118838BDFFF7CCFDE9E700BF9C10002055
:1043C000C0110020C8100020C8100020000000000C
:1043D00038B5202484F311884FF4FA710820FEF7D1
:1043E00047FD002585F3118884F31188154A9368E9
:1043F0000133AB42936010DD13490A688B69926800
:104400009B689A4203D8002383F3118838BDFFF7D5
:104410009FFD002383F3118838BD14680A4923687F
:10442000A06813605A60656284F820500B461B68D0
:104430009A688242FBD25A68C4E9003214605C6018
:10444000DBE700BF90100020C0110020000000003A
:1044500038B5202383F311888368002B10DD154BBA
:104460001A689B6992689B689A4203D8002383F379
:10447000118838BDFFF76CFD002383F3118838BD28
:104480000133012B8360EAD005682B68AC680360B8
:104490005860084B00226A6285F820201A4612688C
:1044A0009168A142FBD25168C5E900210D605560B9
:1044B000D6E700BFC011002000000000000000008F
:1044C000F8B5202383F31188204DAB68002603F153
:1044D000010CB445AE6036DC6C68DFF874E06FF058
:1044E0000107204664681A4B8168256080F82060C7
:1044F0001B689A688A42FBD25A680CF1010CBCF125
:10450000010FC0E90032106058604762E9D1002114
:104510006C602560C0E9003280F82010106058609F
:104520004762DEF80020DEF8183092689B689A42F5
:1045300003D8002383F31188F8BDFFF709FD00239A
:1045400083F31188F8BDDFF808E0EAE79010002057
:10455000C01100200000000000000000000000006A
:104560002DE9F041684F4FF00108C7F80080202581
:1045700085F31188654CA368013B002BA360C0F252
:104580008480002383F3118885F31188A368002BAE
:104590005AD183F3118802233B60202383F31188CF
:1045A000A3680133002BA3605BDD4FF0000E8EF398
:1045B0001188202383F31188A268012A59D18EF330
:1045C000118803223A6083F31188A36803F1010C78
:1045D0000222BCF1000FA26000F3938065684C4E8C
:1045E0006FF0010728466D688168494B2C6080F8A0
:1045F00020E01B689A688A42FBD25A6803600CF17B
:10460000010CBCF1010F4260106058604762E9D1B3
:10461000002165602C60C0E9003280F82010106035
:10462000586047623268B36992689B689A4265D85D
:10463000002383F31188202282F31188A268022AC2
:1046400051D183F311880AE0324C3348334A34495C
:104650001160012323700370002383F31188BDE8E8
:10466000F08120680368236000215C60FFF710FA86
:104670009BE728492848294A01230B7028490370E1
:1046800011608EF31188BDE8F081214E6368B16935
:10469000C1E900434C62196030686160052381F80C
:1046A0002030036833605E6080F82080B061FBF7E3
:1046B00007FEB3695A6A002383F3118885F31188D2
:1046C000A368002BC0D183F31188002A3FF463AFA5
:1046D00010481149114B134A80F8008081F800807E
:1046E0001A60BDE8F0810B480B4C0C4901220270A6
:1046F0000B482270086083F31188B0E7FFF728FCAD
:1047000096E7034E8EE700BFB41000209010002003
:10471000C0110020D1100020D0100020CC100020AB
:10472000ECB3000828B300080000000000000000FF
:10473000F8B5344E344CB36934489968344B01228F
:1047400011442260334A06F0FBF9334A0223236006
:104750001060202383F31188304DAB6800275A1C6A
:1047600003F1030C02E00132624517D0002AAA606F
:10477000F9DC2C68234B2168A06829604D6084F81F
:1047800020701B6899688142FBD2596801326245EA
:10479000C4E900310C605C606762E7D13268B369DC
:1047A00092689B689A4229D8002787F311881A4C8F
:1047B00004F1140654F8040B18B106F069FC44F82F
:1047C000047CB442F6D1202383F31188AB68012B1B
:1047D00008D1002383F3118811490D48BDE8F84042
:1047E000FCF7A6B90F4C1048104A1149116001237B
:1047F00023700370002383F31188F8BDFFF7A8FB33
:10480000D2E700BFC0110020B4100020080A002029
:10481000CCB1000871170008A010002090100020F3
:1048200070B10008D1100020D0100020CC10002062
:1048300000B40008000000000000000000000000BC
:104840002DE9F041AC4D84B0012300272B60CDF859
:1048500000D0CDF804D00297202282F3118802996B
:10486000B94200F3AC8087F3118802232B6082F3F6
:104870001188029B029703F1010CBC4500F3C9802B
:10488000019C9E4E6FF0010E204664689B4B816830
:10489000C4F800D080F820701B689A688A42FBD266
:1048A0005A680CF1010CBCF1010FC0E90032106034
:1048B0005860C0F824E0E7D100210194C4F800D08A
:1048C000C0E9003280F8201010605860C0F824E081
:1048D0003268B36992689B689A4200F2978000241C
:1048E00084F31188202787F31188029BA34272DC8E
:1048F00084F31188B369824A9968824803232B6044
:1049000001396B4606F01CF97F4B186004232B60BD
:1049100087F31188029B013B002B0293C0F2898030
:1049200084F3118887F31188029B002B60DC84F3E9
:10493000118805232B60202383F31188029B002B11
:1049400040F3A6803268B36992689B689A426DD83A
:10495000002282F31188202383F311880299914267
:1049600059DD82F3118883F311880299012940F0FF
:10497000A98082F311880621296083F31188029BA4
:10498000002B40F3DE803268B36992689B689A42DC
:1049900000F2AE80002383F31188202282F3118875
:1049A0000299994240F3998083F3118882F3118828
:1049B000029A012A40F0BA8083F3118808E0534834
:1049C0005349544A03700B70534B136087F311889B
:1049D00004B0BDE8F0814D494D484E4A01230B70AB
:1049E0004D490370116084F3118804B0BDE8F08173
:1049F000464C4748474A48491160012323700370D9
:104A0000002383F3118804B0BDE8F081FFF7A0FA1A
:104A100065E73A4E5CE73D483D4C3E490123037053
:104A20003E482370086082F31188D1E7FFF790FABF
:104A30008EE7B169019BC1F800D04B60C1F824D06A
:104A4000196030680191052381F8203003683360D4
:104A50004FF001085E6080F82080B061FBF730FC09
:104A6000B3695B6A84F3118887F31188029A002A7C
:104A7000BEDC84F31188002B3FF45BAF234824494C
:104A8000244B274A80F8008081F800801A609FE755
:104A90000133012B02933FF455AF009B1A6800923B
:104AA000C2F804D000225A6283F820209968134A81
:104AB000126890688842FBD251681A6059600B6096
:104AC00053603FE71148124C124901230370154807
:104AD0002370086082F311887AE70C480C4C0D496A
:104AE0000122027010482270086083F311886FE77A
:104AF000FFF72EFA4EE700BFB4100020C0110020CF
:104B000051440008080A0020A0100020D110002005
:104B1000D0100020CC10002010B4000830B40008E1
:104B20001CB400083CB4000814B400081148124C2E
:104B300012490122027012482270086083F3118822
:104B400046E70133012B02933FF41DAF009B196828
:104B50000091C1F804D098680A495A6283F820206D
:104B600009688A688242FBD24A68C3E9001213606E
:104B70004B6008E7D1100020D0100020CC1000209E
:104B80003CB40008C011002000000000000000003C
:104B9000F8B5594C594FA36959489E68594B5A4D1D
:104BA00001223A60711C594A05F0CAFFB11C286005
:104BB000574B564A574805F0C3FFF11C6860564BE7
:104BC000524A564805F0BCFF311DA860544B4F4A6D
:104BD000544805F0B5FF544BE8604C4A5348711DEA
:104BE00005F0AEFF02233B602861202383F3118888
:104BF0004F4A1068904261D0056886686A60002359
:104C0000436280F82030156023461B689968B142E2
:104C1000FBD25968036095424160086058604DD0EE
:104C20002868AE68426000236B6285F82030324B02
:104C300010601B689968B142FBD259682B609042A2
:104C400069600D605D6039D0056886686A60002320
:104C5000436280F82030284B15601B689968B14288
:104C6000FBD259680360954241600860586025D0C6
:104C70002868AE68426000236B6285F820301E4BC6
:104C800010601B689968B142FBD259682B60904252
:104C900069600D605D6011D0036813605A60002583
:104CA0008168154B456280F820501B689A688A42DB
:104CB000FBD25A68C0E90032106058602268A369CC
:104CC00092689B689A4214D8002686F311880E4C8D
:104CD00004F1140554F8040B18B106F0D9F944F89E
:104CE000046CA542F6D1BDE8F84012491248FBF722
:104CF0001FBFFFF72DF9E7E7C0110020B410002017
:104D0000080A0020D4B10008A01000205155000866
:104D1000C0B10008500B0020C4B10008980C00205E
:104D2000C8B10008E00D0020CCB10008280F002019
:104D3000B808002070B10008D0B1000800000000E1
:104D4000F8B5394E394FB36939489D68394B3A4CFB
:104D500001223A60691C394A05F0F2FEA91C206064
:104D6000374B364A374805F0EBFEE91C6060364B9E
:104D7000324A364805F0E4FE291DA060344B2F4A24
:104D8000344805F0DDFE344BE0602C4A3348691DA1
:104D900005F0D6FE02233B602061202383F31188B7
:104DA0002F4D2C68AC4220D04FF0000C6FF0010763
:104DB000204624681C4B8168656080F820C01B6811
:104DC0009A688A42FBD25A68AC42C0E9003210604D
:104DD00058604762ECD10021C4E9004480F82010FB
:104DE000C0E900321060586047623268B369926867
:104DF0009B689A4214D8002686F311880E4C04F161
:104E0000140554F8040B18B106F042F944F8046C88
:104E1000AC42F6D1BDE8F84012491348FBF788BE12
:104E2000FFF796F8E7E700BFC0110020B41000209C
:104E3000080A0020D4B10008A01000205155000835
:104E4000C0B10008500B0020C4B10008980C00202D
:104E5000C8B10008E00D0020CCB10008280F0020E8
:104E6000B808002070B10008D0B1000800000000B0
:104E700038B50446202585F311884FF4FA710820CF
:104E8000FDF7F6FF002383F3118885F31188636B28
:104E900094F8202043F001030A2A636320D00B2AF0
:104EA0000AD014490A688B6992689B689A421BD899
:104EB000002383F3118838BD626A9A43F1D10D490A
:104EC000A0680023636284F820300B461B689A6850
:104ED0008242FBD25A68C4E9003214605C60E1E7A8
:104EE000626A1342EBD1DCE7FFF732F8002383F369
:104EF000118838BDC0110020000000000000000033
:104F000070B5202383F31188184C19480021FBF752
:104F10007FFD2268A36992689B689A421CD800258D
:104F200085F31188202686F311884FF4FA71082042
:104F3000FDF79EFF85F3118886F311880D482946F9
:104F4000FBF766FD2268A36992689B689A4206D8BF
:104F5000002383F3118870BDFEF7FAFFDFE7FEF749
:104F6000F7FF002383F3118870BD00BFC01100203C
:104F7000B4080020B008002000000000000000007D
:104F80002DE9F047DFF85481554D564C564F01231B
:104F9000C8F8003004264FF0200A4FF0000905E061
:104FA00089F311882369013E1D4417D08AF31188C3
:104FB000D4E902320133002BC4E902352A6058DDFE
:104FC0003A68BB6992689B689A42E9D9FEF7C0FFCC
:104FD00089F311882369013E1D44E7D10223C8F8F3
:104FE00000300425002005F033FA002855D0013D9B
:104FF000F8D103232846C8F8003005F029FA70BB21
:10500000374E0423C8F8003006F1100A4FF020098B
:10501000314689F31188D4E902320133002BC4E907
:10502000023146F8042B45DD3A68BB6992689B68FB
:105030009A423CD885F31188B245E9D10523C8F8D6
:1050400000300424002005F003FA30B3013CF9D10C
:1050500006232046C8F8003005F0FAF928B3234C9F
:105060002348244A24491160012323700370BDE8BA
:10507000F08720681C4A0368816823605C60C0F880
:10508000249080F82090126893688B42FBD253687A
:10509000C0E900231860506092E7144C1448154A88
:1050A00016491160012323700370BDE8F087FEF7F5
:1050B0004FFFBFE720680C4A036881685C6023608B
:1050C000456280F82050126893688B42FBD2536887
:1050D0000260436018605060A6E700BFB410002073
:1050E0007C09002008080020C0110020D1100020F9
:1050F000D0100020CC10002094B1000888B1000826
:10510000D0E9011370B40246194C006943F82C1C15
:1051100002261849D2F814C043F84C4C01251468F3
:10512000D26823F8286C03F8265C43F8402C43F837
:105130000C2C43F8304C00224C6943F86C0C43E9CA
:105140000522A3F14800A3F12005A3F11C02A3F15D
:105150006C0643E90E1443F83C6C43F868CC2061BC
:10516000486143E9085243F8182C70BC704700BFEF
:10517000D1020008C0110020000000000000000063
:10518000202383F31188FCF7ABBA00BF00000000B6
:105190000E4A0F4B81685B6810B4546F02691B1B89
:1051A0005B1AD218416902614268C46841F100018A
:1051B0009342026888BF436001349342C0E90234DD
:1051C000416110BC38BF0360704700BFC0110020B0
:1051D000001000E0000000000000000000000000DF
:1051E000F0B48368344D0246A969002B46D08C6820
:1051F0009868A04217D293F820009C60062843D0FC
:1052000007282DD078B9D3E900673E60776083F82E
:105210002000294800688668B442FBD918604468B9
:105220005C6023604360134603E088689C688442A6
:1052300002D31B689A42F8D15868C1E90030016076
:1052400028685960062481F8204003682B604A6270
:105250005D60012380F82030A861F0BCFBF730B816
:10526000D3E90006306046605E6A304602E0876837
:10527000BC42D3D800688642F9D1CFE78B6BF0BC33
:10528000C0E9021388637047D3E9000630604660C6
:105290005E6A304602E08768A74202D30068864211
:1052A000F9D1446818605C6023604360B3688C681F
:1052B0009868A0429FD3B6E7C0110020000000000C
:1052C00010B5202484F3118840F2DC510820FDF74A
:1052D000CFFD002383F3118884F311880B48FFF777
:1052E0007FFF0A48FBF75CFB094B1A689B699268D1
:1052F0009B689A4203D8002383F3118810BDFEF700
:1053000027FE002383F3118810BD00BFC0080020D2
:10531000C01100200000000000000000000000009C
:1053200070B5214D2023AE6983F311880468C368EA
:10533000B363844231D0F16B4BB11A68934203D00E
:105340009268914238BF1146DB68002BF5D1236883
:10535000A26BB160036058600023C0E90242A168FB
:1053600084F82030104BA0631B689A688A42FBD2F5
:10537000A9692868896880685A688842C4E9003247
:1053800014605C6003D8002383F3118870BDFEF7BE
:10539000DFFD002383F3118870BD0023A360002389
:1053A00083F3118870BD00BFC01100200000000011
:1053B0001A4B2DE9F041002814BF04461C460F4645
:1053C000164604F10C08202383F311884046FFF7AA
:1053D00007FF4FF0000C8CF311886368CBB1E646F1
:1053E0006546D3E90034A44505F10105A64438BF5C
:1053F000A446002BF5D117B14FEACE033B6016B19E
:105400004FEACC0333604046FFF78AFF2846BDE8E9
:10541000F0819C469E461D46EDE700BF201100200E
:1054200038B50446202383F31188154D2846FFF72D
:10543000D7FE002383F311886368013B63609BB947
:1054400005F11002134619461B68934211D09C4285
:10545000F9D123680B60202383F311886B692360E3
:1054600000236C6183F31188BDE838400448FFF7DE
:1054700057BF202383F3118800236A691A60FFDE77
:10548000D810002000000000000000000000000014
:1054900038B50446202585F311880C48FFF7A0FE97
:1054A000002383F31188207885F31188084A09497D
:1054B00013688B4202D2591C11601870002383F3C9
:1054C00011880248BDE83840FFF72ABFD008002005
:1054D000C8100020C81000200000000000000000DC
:1054E00030B5202387B083F31188164C164AA5697E
:1054F0004FF4FA712B4601A8FDF7DAF9206808236A
:1055000085F82030036823605C60012380F8203038
:105510002946A061FAF7D4FE049B13B101A8FDF758
:105520000FFA002484F31188202383F3118807489D
:10553000FFF756FE84F31188044807B0BDE83040F9
:10554000FFF7EEBEC011002031090008D00800208E
:105550002DE9F0410746202484F311882348FFF702
:105560003FFE002383F3118884F31188204E214DE0
:10557000B469D4F838804046FBF712FA65622B46CE
:1055800003E09968A268914202D31B68AB42F8D14C
:105590005A6823606260B169146030685C600723F8
:1055A00081F82030036833605E60012380F820308A
:1055B000B061FAF785FE4046FFF712FE002383F341
:1055C00011882023387883F311880B4A0B4913681C
:1055D0008B4202D2591C11601870002383F311888A
:1055E0000248BDE8F041FFF79BBE00BFD008002095
:1055F000C0110020B8080020C8100020C8100020EA
:10560000F8B50646202484F311882A48FFF7E8FD00
:10561000002585F3118884F311882748FFF7E0FD02
:1056200085F3118884F31188244D254CAB699F6B59
:105630003846FBF7B5F9A96923464C6203E08A684E
:105640009868904202D31B68A342F8D15A680B6055
:105650004A60116028685960072381F82030036888
:105660002B605D60012380F82030A861FAF728FEE6
:10567000AB695B6A013302D03846FFF7B1FD002306
:1056800083F311882023307883F311880D4A0E4963
:1056900013688B4202D2591C11601870002383F3E7
:1056A00011880548FFF73CFEBDE8F8400148FFF7C8
:1056B00037BE00BFC0080020D0080020C011002065
:1056C000B8080020C8100020C8100020000000000A
:1056D00038B50446202585F311880C48FFF780FD76
:1056E000002383F31188207885F31188084A09493B
:1056F00013688B4202D2591C11601870002383F387
:1057000011880248BDE83840FFF70ABEC0080020F3
:10571000C8100020C8100020000000000000000099
:105720002DE9F041DFF8B4802D4ED8F8182002237F
:1057300033609568202383F311882A48FFF750FDD2
:10574000002787F3118803233360274A274B284813
:10575000284C691C05F0F4F9274B234A2060A91C4A
:10576000264805F0EDF9264B1F4A6060E91C2548E4
:1057700005F0E6F9244B1C4AA060291D234805F0DA
:10578000DFF9234B184AE060691D224805F0D8F97B
:105790000423206113483360FFF7C2FD04F11406AF
:1057A00054F8040B18B105F073FC44F8047CB442BF
:1057B000F6D1D8F818309B68AB4205D1BDE8F0416E
:1057C00015491648FBF7B4B9154C1648164A17493F
:1057D0001160012323700370BDE8F081C011002027
:1057E000B4100020D008002091540008D4B1000863
:1057F000080A0020A0100020C0B10008500B0020B3
:10580000C4B10008980C0020C8B10008E00D0020C9
:10581000CCB10008280F002070B10008D0B10008FA
:10582000D1100020D0100020CC10002050B400086F
:105830002DE9F047374C384DA369384A9E683848FF
:10584000384F06F1010902232B604946364B05F01B
:1058500077F906F1020A3860344B354A354851462B
:1058600005F06EF9032378602B604FF0200888F371
:1058700011883148FFF7B4FC002787F31188A3692A
:105880009B689E423CD104232B6088F311884FF41F
:105890007A710820FDF7ECFA87F31188A3699B68F9
:1058A00099452DD105232B6088F311882348FFF7F4
:1058B00097FC87F31188A3699B68994520D106233B
:1058C0002B6088F311884FF47A710820FDF7D0FA25
:1058D00087F31188A3699B689A4511D1072317485C
:1058E0002B60FFF71DFDA3699B68994508D108232C
:1058F00011482B60FFF714FDA3699B689E4207D0F7
:105900000F4C1048104A1149116001232370037095
:10591000BDE8F087C0110020B4100020E154000859
:10592000080A0020A0100020CCB10008C8B100086F
:10593000C1520008500B0020D0080020C0080020F1
:10594000D1100020D0100020CC10002050B400084E
:105950002DE9F84F694BDFF8A8819A690223C8F84E
:105960000030D2F808A0202383F311886548FFF7A0
:1059700037FC002585F31188DFF88C91D9F80440B5
:10598000002C00F091802F462E46D4E900439D4222
:1059900006F101061F4438BF1D46002CF5D15948B9
:1059A000FFF7BEFC012E40F083800323C8F80030CF
:1059B0005649574BDFF85CB10AF1FF324FF4A4703F
:1059C00005F066F8CBF80000002863D00423C8F87F
:1059D00000305149514BAAF102024FF4A47005F076
:1059E00057F8CBF80400002854D00523C8F800303D
:1059F0004B494C4BAAF103024FF0004005F048F828
:105A0000CBF8080000285DD10623C8F800300BF160
:105A100014065BF8040B18B105F03AFB4BF8044C84
:105A20005E45F6D140494148FBF782F8044600281C
:105A300038D10723C8F80030202383F31188314878
:105A4000FFF7CEFB84F31188D9F80430002B41D046
:105A5000A0462646D3E90032944206F1010690445E
:105A600038BF1446002BF5D12648FFF759FC012E0C
:105A700033D14FEAC808B8EBC70F37D1E400B4EB15
:105A8000C50F0FD02A482B492B4B2C4A06700E709D
:105A90001A6007E0264C2748274A2949116001234C
:105AA00023700370BDE8F88F09F10C00FFF738FC94
:105AB0001F4C2048204A23491160012323700370A2
:105AC000BDE8F88F1A481B491B4B1F4A06700E7021
:105AD0001A60E7E70B48FFF723FC154C1548164AF8
